20031227
01CER1INTBIB000005        CER1MAYN5201870000021016   00010001310210111302119392366848830730000000000000000000000000000000000000003122617112487031227000000000000000000001273220000000960429530804301000003031000000000000000000000 0000000000000000000400000000000000000000000000000000000000000000000000000000072WINCOR II LAB.BCA.ELECT. INTERBANK - SISTEMAS  LIMA            PE00000000000000000000000000006040000000000000000000000347232829622768030400AP000000000000000000000000000000000000000Q300058 604604000000000000000 000000000000000000000000000000000000
01CER1INTBIB000005        CER1MAYN5201870000021016   00010001310210111302119392369410046540000000000000000000000000000000000000003122617154099031227000000000000000000001274220000000960429530804301000003031000000000000000000000 0000000000000000000400000000000000000000000000000000000000000000000000000000072WINCOR II LAB.BCA.ELECT. INTERBANK - SISTEMAS  LIMA            PE00000000000000000000000000006040000000000000000000000347232829622768030400AP000000000000000000000000000000000000000Q300058 604604000000000000000 000000000000000000000000000000000000
01CER1INTBIB000005        CER1MAYN5201870000021016   00010001310210111302119392376035623530000000000000000000000000000000000000003122617264355031227000000000000000000001275220000000960429530804301000003011000000000000000000000 0000000000000000000400000000000000000000000000000000000000000000000000000000072WINCOR II LAB.BCA.ELECT. INTERBANK - SISTEMAS  LIMA            PE00000000000000000000000000006040000000000000000000000347232829622768030400AP000000000000000000000000000000000000000Q300058 604604000000000000000 000000000000000000000000000000000000
01CER1INTBIB000005        CER1MAYN5201870000021016   00010001310210111302119392376610426740000000000000000000000000000000000000003122617274103031227000000000000000000001276220000000960429530804301000003031000000000000000000000 0000000000000000000400000000000000000000000000000000000000000000000000000000072WINCOR II LAB.BCA.ELECT. INTERBANK - SISTEMAS  LIMA            PE00000000000000000000000000006040000000000000000000000347232829622768030400AP000000000000000000000000000000000000000Q300058 604604000000000000000 000000000000000000000000000000000000
01CER1INTBIB000005        CER1MAYN5201870047747011   00010001310210111302119392377198717520000000000000000000000000000000000000003122617283986031227000000000000000000001277220000000960429530804301000003031000000000000000000000 0000000000000000000400000000000000000000000000000000000000000000000000000000072WINCOR II LAB.BCA.ELECT. INTERBANK - SISTEMAS  LIMA            PE00000000000000000000000000006040000000000000000000000347232829622768030400AP000000000000000000000000000000000000000Q300058 604604000000000000000 000000000000000000000000000000000000
01CER1INTBIB000005        CER1MAYN5201870000023012   00010001310210111302119392377794736970000000000000000000000000000000000000003122617293946031227000000000000000000001278220000000960429530804301000003031000000000000000000000 0000000000000000000400000000000000000000000000000000000000000000000000000000072WINCOR II LAB.BCA.ELECT. INTERBANK - SISTEMAS  LIMA            PE00000000000000000000000000006040000000000000000000000347232829622768030400AP000000000000000000000000000000000000000Q300058 604604000000000000000 000000000000000000000000000000000000
01CER1INTBIB000005        CER1MAYN8043010000937012   00010001310210111302119392379888390420000000000000000000000000000000000000003122617330882031227000000000000000000001279220000000960429530804301000003011000000000000000000000 0000000000000000000400000000000000000000000000000000000000000000000000000000072WINCOR II LAB.BCA.ELECT. INTERBANK - SISTEMAS  LIMA            PE00000000000000000000000000006040000000000000000000000347232829622768030400AP000000000000000000000000000000000000000Q300058 604604000000000000000 000000000000000000000000000000000000
01CER1INTBIB000005        CER1MAYN8043010000937012   00010001310210111302119392380604723340000000000000000000000000000000000000003122617342046031227000000000000000000001280220000000960429530804301000003011000000000000000000000 0000000000000000000400000000000000000000000000000000000000000000000000000000072WINCOR II LAB.BCA.ELECT. INTERBANK - SISTEMAS  LIMA            PE00000000000000000000000000006040000000000000000000000347232829622768030400AP000000000000000000000000000000000000000Q300058 840840000000000000000 000000000000000000000000000000000000
01CER1INTBIB000005        CER1MAYN5201870000021016   00010001310210111302119392381734799270000000000000000000000000000000000000003122617361346031227000000000000000000001281220000000960429530804301000003031000000000000000000000 0000000000000000000400000000000000000000000000000000000000000000000000000000072WINCOR II LAB.BCA.ELECT. INTERBANK - SISTEMAS  LIMA            PE00000000000000000000000000006040000000000000000000000347232829622768030400AP000000000000000000000000000000000000000Q300058 604604000000000000000 000000000000000000000000000000000000
01CER1INTBIB000005        CER1MAYN5201870000021016   00010001310210121302119392387388720900000000000000000000000000000000000000003122617453886031227000000000000000000001282220000000960429530804301000003031000000000000000000000 0000000000000000000400000000000000000000000000000000000000000000000000000000072WINCOR II LAB.BCA.ELECT. INTERBANK - SISTEMAS  LIMA            PE00000000000000000000000000006040000000000000000000000347232829622768030400AP000000000000000000000000000000000000000Q300058 604604000000000000000 000000000000000000000000000000000000
01CER1INTBIB000005        CER1MAYN5201870000021016   00010001310210121302119392387558964060000000000000000000000000000000000000003122617455588031227000000000000000000001283220000000960429530804301000003031000000000000000000000 0000000000000000000400000000000000000000000000000000000000000000000000000000072WINCOR II LAB.BCA.ELECT. INTERBANK - SISTEMAS  LIMA            PE00000000000000000000000000006040000000000000000000000347232829622768030400AP000000000000000000000000000000000000000Q300058 604604000000000000000 000000000000000000000000000000000000
01CER1INTBIB000005        CER1MAYN5201870047747011   00010001310210121302119392388034646240000000000000000000000000000000000000003122617464345031227000000000000000000001284220000000960429530804301000003031000000000000000000000 0000000000000000000400000000000000000000000000000000000000000000000000000000072WINCOR II LAB.BCA.ELECT. INTERBANK - SISTEMAS  LIMA            PE00000000000000000000000000006040000000000000000000000347232829622768030400AP000000000000000000000000000000000000000Q300058 604604000000000000000 000000000000000000000000000000000000
01CER1INTBIB000005        CER1MAYN5201870000023012   000100013102100015021193923884261759402119392388428011620211939238849261131031226174722600312270000000000000000000012852200000009604295308043010000030310000000023012   52018 0000000000000000000400000000000000000000000003500000000000003500000000000000000WINCOR II LAB.BCA.ELECT. INTERBANK - SISTEMAS  LIMA            PE0000000000000000000000000000604000       000000000000347232829622768030400AP168384000000000000000000000000000000000Q300058 604604000000000000000 000000000000000000000000000000000000
01CER1INTBIB000005        CER1MAYN5201870000023012   000100013102100015021193923887132614202119392388715094200211939238872605901031226174751310312270000000000000000000012862200000009604295308043010000030310000000023012   52018 0000000000000000000400000000000000000000000003500000000000003500000000000000000WINCOR II LAB.BCA.ELECT. INTERBANK - SISTEMAS  LIMA            PE0000000000000000000000000000604000       000000000000347232829622768030400AP057583000000000000000000000000000000000Q300058 604604000000000000000 000000000000000000000000000000000000
01CER1INTBIB000005        CER1MAYN5201870047746013   000100013102100015021193923890491633802119392389050889380211939238906141895031226174824900312270000000000000000000012872200000009604295308043010000030310000000023012   52018 0000000000000000000400000000000000000000000003500000000000003500000000000000000WINCOR II LAB.BCA.ELECT. INTERBANK - SISTEMAS  LIMA            PE0000000000000000000000000000604000       000000000000347232829622768030400AP101133000000000000000000000000000000000Q300058 604604000000000000000 000000000000000000000000000000000000
01CER1INTBIB000005        CER1MAYN5201870000020018   000100013102100015021193923894776732202119392389479408120211939238949055691031226174907750312270000000000000000000012882200000009604295308043010000030310000000020018   52018 0000000000000000000400000000000000000000000005000000000000005000000000000000000WINCOR II LAB.BCA.ELECT. INTERBANK - SISTEMAS  LIMA            PE0000000000000000000000000000604000       000000000000347232829622768030400AP175152000000000000000000000000000000000Q300058 604604000000000000000 000000000000000000000000000000000000
01CER1INTBIB000005        CER1MAYN5201870000021016   000100013102100015021193923897340238102119392389735756610211939238975580339031226174933390312270000000000000000000012892200000009604295308043010000030310000000021016   52018 0000000000000000000400000000000000000000000008500000000000008500000000000000000WINCOR II LAB.BCA.ELECT. INTERBANK - SISTEMAS  LIMA            PE0000000000000000000000000000604000       000000000000347232829622768030400AP310513000000000000000000000000000000000Q300058 604604000000000000000 000000000000000000000000000000000000
01CER1INTBIB000005        CER1MAYN5201870047747011   000100013102100015021193923899976621202119392389999456620211939239001032051031226174959750312270000000000000000000012902200000009604295308043010000030310000000021016   52018 0000000000000000000400000000000000000000000008500000000000008500000000000000000WINCOR II LAB.BCA.ELECT. INTERBANK - SISTEMAS  LIMA            PE0000000000000000000000000000604000       000000000000347232829622768030400AP056272000000000000000000000000000000000Q300058 604604000000000000000 000000000000000000000000000000000000
01CER1INTBIB000005        CER1MAYN5201870000021016   000100013102100015021193923938360087902119392393837736340211939239384935617031226175623590312270000000000000000000012912200000009604295308043010000030310000000021016   52018 0000000000000000000400000000000000000000000008500000000000008500000000000000000WINCOR II LAB.BCA.ELECT. INTERBANK - SISTEMAS  LIMA            PE0000000000000000000000000000604000       000000000000347232829622768030400AP230100000000000000000000000000000000000Q300058 604604000000000000000 000000000000000000000000000000000000
01CER1INTBIB000005        CER1MAYN5201870047747011   000100013102100015021193923940814012102119392394083143680211939239409322654031226175648120312270000000000000000000012922200000009604295308043010000030310000000021016   52018 0000000000000000000400000000000000000000000008500000000000008500000000000000000WINCOR II LAB.BCA.ELECT. INTERBANK - SISTEMAS  LIMA            PE0000000000000000000000000000604000       000000000000347232829622768030400AP074190000000000000000000000000000000000Q300058 604604000000000000000 000000000000000000000000000000000000
01CER1INTBIB000005        CER1MAYN5201870000023012   000100013102100015021193923943226139102119392394324339070211939239433418590031226175712250312270000000000000000000012932200000009604295308043010000030310000000023012   52018 0000000000000000000400000000000000000000000003500000000000003500000000000000000WINCOR II LAB.BCA.ELECT. INTERBANK - SISTEMAS  LIMA            PE0000000000000000000000000000604000       000000000000347232829622768030400AP162120000000000000000000000000000000000Q300058 604604000000000000000 000000000000000000000000000000000000
01CER1INTBIB000005        CER1MAYN5201870047746013   000100013102100015021193923945578203402119392394559514730211939239457041052031226175735770312270000000000000000000012942200000009604295308043010000030310000000023012   52018 0000000000000000000400000000000000000000000003500000000000003500000000000000000WINCOR II LAB.BCA.ELECT. INTERBANK - SISTEMAS  LIMA            PE0000000000000000000000000000604000       000000000000347232829622768030400AP040869000000000000000000000000000000000Q300058 604604000000000000000 000000000000000000000000000000000000
01CER1INTBIB000005        CER1MAYN5201870000020018   000100013102100015021193923947874828902119392394789253780211939239479959101031226175758730312270000000000000000000012952200000009604295308043010000030310000000020018   52018 0000000000000000000400000000000000000000000005000000000000005000000000000000000WINCOR II LAB.BCA.ELECT. INTERBANK - SISTEMAS  LIMA            PE0000000000000000000000000000604000       000000000000347232829622768030400AP027492000000000000000000000000000000000Q300058 604604000000000000000 000000000000000000000000000000000000
01CER1INTBIB000005        CER1MAYN5201870000021016   000100013102100015021193923952229009302119392395224647320211939239523541803031226175842280312270000000000000000000012962200000009604295308043010000010310000000021016   52018 01                 400000000000500000000000008000000000000008000000000000000000WINCOR II LAB.BCA.ELECT. INTERBANK - SISTEMAS  LIMA            PE0000000000000000000000000000604000       000000000000347232829622768030400AP127678000000000000000000000000000000000Q300058 604604000000000000000 000000000000000000000000000000000000
01CER1INTBIB000005        CER1MAYN5201870047747011   000100013102100015021193923956179293502119392395620201240211939239563044938031226175921780312270000000000000000000012972200000009604295308043010000010310000000021016   52018 01                 400000000000500000000000007500000000000007500000000000000000WINCOR II LAB.BCA.ELECT. INTERBANK - SISTEMAS  LIMA            PE0000000000000000000000000000604000       000000000000347232829622768030400AP090840000000000000000000000000000000000Q300058 604604000000000000000 000000000000000000000000000000000000
01CER1INTBIB000005        CER1MAYN5201870000023012   000100013102100015021193923960012893002119392396003075230211939239601340926031226180000110312270000000000000000000012982200000009604295308043010000010310000000023012   52018 01                 400000000000500000000000003000000000000003000000000000000000WINCOR II LAB.BCA.ELECT. INTERBANK - SISTEMAS  LIMA            PE0000000000000000000000000000604000       000000000000347232829622768030400AP120602000000000000000000000000000000000Q300058 604604000000000000000 000000000000000000000000000000000000
01CER1INTBIB000005        CER1MAYN5201870047746013   000100013102100015021193923963526528802119392396354385740211939239636462856031226180035250312270000000000000000000012992200000009604295308043010000010310000000023012   52018 01                 400000000000500000000000002500000000000002500000000000000000WINCOR II LAB.BCA.ELECT. INTERBANK - SISTEMAS  LIMA            PE0000000000000000000000000000604000       000000000000347232829622768030400AP322252000000000000000000000000000000000Q300058 604604000000000000000 000000000000000000000000000000000000
01CER1INTBIB000005        CER1MAYN5201870000020018   000100013104200015021193923967093917302119392396711155730211939239673152978031226180110930312270000000000000000000013002200000009604295308043010000010310000000020018   52018R01                 400000000001000000000000004000000000000004000000000000000000WINCOR II LAB.BCA.ELECT. INTERBANK - SISTEMAS  LIMA            PE0000000000000000000000000000604000       000000000000347232829622768030410AP175438000000000000000000000000000000000Q300058 604604000000000000000 000000000000000000000000000000000000
01CER1INTBIB000005        CER1MAYN5201870000020018   000100013104200015021193923967093917302119392396711155730211939239673152978031226180110930312270000000000000000000013002200000009604295308043010000010310000000020018   52018R01                 400000000001000000000000000000000000000000000000000000000000WINCOR II LAB.BCA.ELECT. INTERBANK - SISTEMAS  LIMA            PE0000000000000000000000000000604000       000000000000347232829622768030410AP175438000000000000000000000000000000000Q300058 604604000000000000000 000000000000000000000000000000000000
01CER1INTBIB000005        CER1MAYN5201870000020018   000100013102100015021193923976841352902119392397685950320211939239769641093031226180248400312270000000000000000000013012200000009604295308043010000030310000000020018   52018 0000000000000000000400000000000000000000000005000000000000005000000000000000000WINCOR II LAB.BCA.ELECT. INTERBANK - SISTEMAS  LIMA            PE0000000000000000000000000000604000       000000000000347232829622768030400AP250891000000000000000000000000000000000Q300058 604604000000000000000 000000000000000000000000000000000000
01CER1INTBIB000005        CER1MAYN5201870000020018   00010001310210001502119392401808185330211939240180982422021193924018198534203122618094080031227000000000000000000001302220000000960429530804301000001031000000000000000000000 01                 400000000000000000000000000000000000000007000000000000000053WINCOR II LAB.BCA.ELECT. INTERBANK - SISTEMAS  LIMA            PE0000000000000000000000000000604000       000000000000347232829622768030400AP000000000000000000000000000000000000000Q300058 840604000000000000000 000000002000000000000000000000000000
01CER1INTBIB000005        CER1MAYN5201870000020018   00010001310210001502119392401942994900211939240194476502021193924019545110503122618095429031227000000000000000000001303220000000960429530804301000001031000000000000000000000 01                 400000000000000000000000000000000000000007000000000000000053WINCOR II LAB.BCA.ELECT. INTERBANK - SISTEMAS  LIMA            PE0000000000000000000000000000604000       000000000000347232829622768030400AP000000000000000000000000000000000000000Q300058 840604000000000000000 000000002000000000000000000000000000
01CER1INTBIB000005        CER1MAYN5201870000020018   000100013104200015021193924021398344202119392402141572310211939240215220725031226181013970312270000000000000000000013042200000009604295308043010000010310000000020018   52018R01                 400000000000000000000000004294000000000004294000000000000000WINCOR II LAB.BCA.ELECT. INTERBANK - SISTEMAS  LIMA            PE0000000000000000000000000000604000       000000000000347232829622768030420AP211835000000000000000000000000000000000Q300058 840604000004003530000 000000002000000000000000000000000000
01CER1INTBIB000005        CER1MAYN5201870000020018   000100013104200025021193924021398344202119392402141572310211939240215220725031226181013970312270000000000000000000013042200000009604295308043010000010310000000020018   52018R01                 400000000000000000000000000000000000000000000000000000000000WINCOR II LAB.BCA.ELECT. INTERBANK - SISTEMAS  LIMA            PE0000000000000000000000000000604000       000000000000347232829622768030420AP211835000000000000000000000000000000000Q300058 840604000004003530000 000000000000000000000000000000000000
01CER1INTBIB000005        CER1MAYN5201870000020018   00010001310210001502119392402994079990211939240299581518021193924030053664803122618113939031227000000000000000000001305220000000960429530804301000003031000000000000000000000 0000000000000000000400000000000000000000000000000000000000000000000000000000058WINCOR II LAB.BCA.ELECT. INTERBANK - SISTEMAS  LIMA            PE0000000000000000000000000000604000       000000000000347232829622768030400AP000000000000000000000000000000000000000Q300058 840604000000000000000 000000000000000000000000000000070000
01CER1INTBIB000005        CER1MAYN5201870000020018   00010001310210001502119392403186378970211939240318810493021193924031977520803122618115862031227000000000000000000001306220000000960429530804301000003031000000000000000000000 0000000000000000000400000000000000000000000000000000000000000000000000000000058WINCOR II LAB.BCA.ELECT. INTERBANK - SISTEMAS  LIMA            PE0000000000000000000000000000604000       000000000000347232829622768030400AP000000000000000000000000000000000000000Q300058 840604000000000000000 000000000000000000000000000000070000
01CER1INTBIB000005        CER1MAYN5201870000020018   000100013102100015021193924069008026202119392406902559570211939240691874351031226181810070312270000000000000000000013072200000009604295308043010000010310000000020018   52018 01                 400000000000500000000000004500000000000004500000000000000000WINCOR II LAB.BCA.ELECT. INTERBANK - SISTEMAS  LIMA            PE0000000000000000000000000000604000       000000000000347232829622768030400AP251373000000000000000000000000000000000Q300058 604604000000000000000 000000000000000000000000000000000000
01CER1INTBIB000005        CER1MAYN5201870047746013   000100013104200015021193924075152244002119392407516977550211939240752724425031226181911510312270000000000000000000013082200000009604295308043010000010310000000023012   52018R01                 400000000000500000000000002000000000000002000000000000000000WINCOR II LAB.BCA.ELECT. INTERBANK - SISTEMAS  LIMA            PE0000000000000000000000000000604000       000000000000347232829622768030420AP255663000000000000000000000000000000000Q300058 604604000000000000000 000000000000000000000000000000000000
01CER1INTBIB000005        CER1MAYN5201870047746013   000100013104200025021193924075152244002119392407516977550211939240752724425031226181911510312270000000000000000000013082200000009604295308043010000010310000000023012   52018R01                 400000000000000000000000000000000000000000000000000000000000WINCOR II LAB.BCA.ELECT. INTERBANK - SISTEMAS  LIMA            PE0000000000000000000000000000604000       000000000000347232829622768030420AP255663000000000000000000000000000000000Q300058 604604000000000000000 000000000000000000000000000000000000
01CER1INTBIB000005        CER1MAYN5201870047746013   000100013102100015021193924081254302702119392408127238700211939240813724560031226182012530312270000000000000000000013092200000009604295308043010000030310000000023012   52018 0000000000000000000400000000000000000000000002500000000000002500000000000000000WINCOR II LAB.BCA.ELECT. INTERBANK - SISTEMAS  LIMA            PE0000000000000000000000000000604000       000000000000347232829622768030400AP269667000000000000000000000000000000000Q300058 604604000000000000000 000000000000000000000000000000000000
01CER1INTBIB000005        CER1MAYN5201870000020018   000100013102100015021193924087047551102119392408706486910211939240871635739031226182110460312270000000000000000000013102200000009604295308043010000010310000000020018   52018 01                 400000000000500000000000004000000000000004000000000000000000WINCOR II LAB.BCA.ELECT. INTERBANK - SISTEMAS  LIMA            PE0000000000000000000000000000604000       000000000000347232829622768030400AP049780000000000000000000000000000000000Q300058 604604000000000000000 000000000000000000000000000000000000
01CER1INTBIB000005        CER1MAYN5201870000020018   000100013102100015021193924090070702102119392409008811550211939240901917414031226182140690312270000000000000000000013112200000009604295308043010000010310000000020018   52018 01                 400000000001500000000000000000000000000007000000000000000063WINCOR II LAB.BCA.ELECT. INTERBANK - SISTEMAS  LIMA            PE0000000000000000000000000000604000       000000000000347232829622768030400AP000000000000000000000000000000000000000Q300058 604604000000000000000 000000000000000000000000000000000000
01CER1INTBIB000005        CER1MAYN5201870000020018   000100013102100015021193924091918312202119392409193723800211939240920386571031226182159170312270000000000000000000013122200000009604295308043010000010310000000020018   52018 01                 400000000001000000000000000000000000000007000000000000000063WINCOR II LAB.BCA.ELECT. INTERBANK - SISTEMAS  LIMA            PE0000000000000000000000000000604000       000000000000347232829622768030400AP000000000000000000000000000000000000000Q300058 604604000000000000000 000000000000000000000000000000000000
01CER1INTBIB000005        CER1MAYN5201870000020018   000100013102100015021193924093019836302119392409303716970211939240931356679031226182210180312270000000000000000000013132200000009604295308043010000010310000000020018   52018 01                 400000000000500000000000003500000000000003500000000000000000WINCOR II LAB.BCA.ELECT. INTERBANK - SISTEMAS  LIMA            PE0000000000000000000000000000604000       000000000000347232829622768030400AP204950000000000000000000000000000000000Q300058 604604000000000000000 000000000000000000000000000000000000
01CER1INTBIB000005        CER1MAYN5201870000020018   000100013102100015021193924095710194602119392409572880690211939240958274563031226182237090312270000000000000000000013142200000009604295308043010000010310000000020018   52018 01                 400000000000500000000000000000000000000007000000000000000063WINCOR II LAB.BCA.ELECT. INTERBANK - SISTEMAS  LIMA            PE0000000000000000000000000000604000       000000000000347232829622768030400AP000000000000000000000000000000000000000Q300058 604604000000000000000 000000000000000000000000000000000000