20100129000165
01PRO1INTBIB000024        PRO1MAYN8109000000153968   00010001310210001502121315357200473760212131535720108862021213153572386842010012909352004100129000000000000000000008573220000000960429530000000000001011000109102321000019836 0000000000000000000400000000015000000000000005004400000000005004400000000000000CC.RES.SAN FELIPE TDA.109TDA.47 RESD.SAN FELIP3LIMA         N 0PE0000000000000000000000000000604000       000000000000347232829622768030400AP009607010203040500000000000000000000000Q300058 604604000000000000000 000000000000000000050044000000050044
01PRO1INTBIB000232        PRO1MAYN8109000000172463   00010001310210001502121315401093996740212131540109483065021213154011322255910012910482939100129000000000000000000006963220000000960429530000000000001011000109092321000092894 0000000000000000000400000000002000000000000052025900000000052025900000000000000AV.PASE.DELA REPUB.475 IIC.C. POLVOS AZULES II LIMA         W 0PE0000000000000000000000000000604000       000000000000347232829622768030400AP009618010203040500000000000000000000000Q300058 604604000000000000000 000000000000000000520259000000520259
01PRO1INTBIB000232        PRO1MAYN8109000000172463   00010001310210001502121315401393014160212131540139407253021213154014265099010012910485929100129000000000000000000006964220000000960429530000000000001011000109092321000092894 0000000000000000000400000000002000000000000050024900000000050024900000000000000AV.PASE.DELA REPUB.475 IIC.C. POLVOS AZULES II LIMA         W 0PE0000000000000000000000000000604000       000000000000347232829622768030400AP009619010203040500000000000000000000000Q300058 604604000000000000000 000000000000000000500249000000500249
01PRO1INTBIB000530        PRO1MAYN8109000000146426   00010001310210001502121315597689193600212131559769044510021213155977250901410012916160891100129000000000000000000008680220000000960429530000000000001012000000000000000000000 0000000000000000000400000000004000000000000000000000000000000000000000000000056ESQ.NICOL.AYLLON/LA MAR ITDA.250 PLZ.VEA ATE I LIMA         W 0PE0000000000000000000000000000604000       000000000000347232829622768030400AP000000010203040500000000000000000000000Q300058 604604000000000000000 000000000000000000000000000000000000
01PRO1INTBIB000530        PRO1MAYN8109000000146426   00010001310210001502121315598387895430212131559838921832021213155984269767610012916171878100129000000000000000000008681220000000960429530000000000001011000109042321000092860 0000000000000000000400000000003000000000000004289100000000004289100000000000000ESQ.NICOL.AYLLON/LA MAR ITDA.250 PLZ.VEA ATE I LIMA         W 0PE0000000000000000000000000000604000       000000000000347232829622768030400AP009671010203040500000000000000000000000Q300058 604604000000000000000 000000000000000000042891000000042891
01PRO1INTBIB000815        PRO1MAYN8109000000146426   00010001310210001502121315559582498780212131555958332254021213155596175785810012915123824100129000000000000000000000337220000000960429530000000000001011000109042321000092860 0000000000000000000400000000004000000000000007290600000000007290600000000000000ESQ.NIC.AYLLON/LA MAR IIIPLAZA VEA ATE III     LIMA         N 0PE0000000000000000000000000000604000       000000000000347232829622768030400AP009662010203040500000000000000000000000Q300058 604604000000000000000 000000000000000000072906000000072906
01PRO1INTBIB500892        PRO1MAYN8109000000103542   00010001310210001502121315277989393910212131527799009994021213152780226975710012907231893100129000000000000000000000209220000000960429530000000000001011000109022321000094277 0000000000000000000400000000000700000000000000398700000000000398700000000000000AV.28 DE JULIO 924 BANTRAAGENCIA BANTRA HUANUCOHUANUCO      W 0PE0000000000000000000000000000604000       000000000000347232829622768030400AP009591010203040500000000000000000000000Q300058 604604000000000000000 000000000000000000003987000000003987
01PRO1INTBIB500892        PRO1MAYN8109000000103542   00010001310210001502121315278771266450212131527877200413021213152788043422110012907243712100129000000000000000000000210220000000960429530000000000001011000000000000000000000 0000000000000000000400000000000500000000000000000000000000000000000000000000058AV.28 DE JULIO 924 BANTRAAGENCIA BANTRA HUANUCOHUANUCO      W 0PE0000000000000000000000000000604000       000000000000347232829622768030400AP000000010203040500000000000000000000000Q300058 604604000000000000000 000000000000000000000000000000000000
01PRO1INTBIB500892        PRO1MAYN8109000000073232   00010001310210001502121315293098883430212131529309966167021213152931321657110012907482988100129000000000000000000000215220000000960429530000000000001011000000000000000000000 0000000000000000000400000000036000000000000000000000000000000000000000000000063AV.28 DE JULIO 924 BANTRAAGENCIA BANTRA HUANUCOHUANUCO      W 0PE0000000000000000000000000000604000       000000000000347232829622768030400AP000000010203040500000000000000000000000Q300058 604604000000000000000 000000000000000000000000000000000000
01PRO1INTBIB500892        PRO1MAYN8109000000073232   00010001310210001502121315293325206690212131529332590127021213152933581505710012907485251100129000000000000000000000216220000000960429530000000000001011000109032321000140121 0000000000000000000400000000015000000000000024952600000000024952600000000000000AV.28 DE JULIO 924 BANTRAAGENCIA BANTRA HUANUCOHUANUCO      W 0PE0000000000000000000000000000604000       000000000000347232829622768030400AP009592010203040500000000000000000000000Q300058 604604000000000000000 000000000000000000249526000000249526
01PRO1INTBIB500892        PRO1MAYN8109000000073232   00010001310210001502121315293848876390212131529384955903021213152938820541310012907494488100129000000000000000000000217220000000960429530000000000001011000000000000000000000 0000000000000000000400000000015000000000000000000000000000000000000000000000063AV.28 DE JULIO 924 BANTRAAGENCIA BANTRA HUANUCOHUANUCO      W 0PE0000000000000000000000000000604000       000000000000347232829622768030400AP000000010203040500000000000000000000000Q300058 604604000000000000000 000000000000000000000000000000000000
01PRO1INTBIB500892        PRO1MAYN8109000000073232   00010001310210001502121315294033720870212131529403426804021213152940672001910012907500336100129000000000000000000000218220000000960429530000000000001011000000000000000000000 0000000000000000000400000000010000000000000000000000000000000000000000000000063AV.28 DE JULIO 924 BANTRAAGENCIA BANTRA HUANUCOHUANUCO      W 0PE0000000000000000000000000000604000       000000000000347232829622768030400AP000000010203040500000000000000000000000Q300058 604604000000000000000 000000000000000000000000000000000000
01PRO1INTBIB500892        PRO1MAYN8109000000103195   00010001310210001502121315722687586500212131572269036456021213157227435029210012919442874100129000000000000000000000279220000000960429530000000000001011000109022321000086207 0000000000000000000400000000000500000000000015392700000000015392700000000000000AV.28 DE JULIO 924 BANTRAAGENCIA BANTRA HUANUCOHUANUCO      W 0PE0000000000000000000000000000604000       000000000000347232829622768030400AP009709010203040500000000000000000000000Q300058 604604000000000000000 000000000000000000153927000000153927
01PRO1INTBIB590762        PRO1MAYN8109000000158454   00010001310210001502121315496528598570212131549652956335021213154965620849710012913273285100129000000000000000000007428220000000960429530000000000001011000109252321000001333 0000000000000000000400000000000200000000000014099700000000014099700000000000000JR.LEONCIO PRADO 108 CMACCMAC.HYO.AGENC.C.PASCOCERRODEPASCO W 0PE0000000000000000000000000000604000       000000000000347232829622768030400AP009652010203040500000000000000000000000Q300058 604604000000000000000 000000000000000000140997000000140997
01PRO1INTBIB700139        PRO1MAYN8109000000148653   00010001310210001502121315706469163070212131570647001676021213157065082824410012919172691100129000000000000000000003730220000000960429530000000000001011000109012321000363588 0000000000000000000400000000000500000000000062580900000000062580900000000000000AV.M.DE CERVANTES 300 II CC.REAL PL.CHICLAYO IICHICLAYO     W 0PE0000000000000000000000000000604000       000000000000347232829622768030400AP009701010203040500000000000000000000000Q300058 604604000000000000000 000000000000000000625809000000625809
01PRO1INTBIB702068        PRO1MAYN8109000000155245   00010001310210001502121315564765437290212131556476951635021213155648021749610012915211654100129000000000000000000005130220000000960429530000000000001011000109242321000005657 0000000000000000000400000000000500000000000000048900000000000048900000000000000SOR MANUELA GIL 151 QUINDEL QUINDE SHOPPING CENCAJAMARCA    N 0PE0000000000000000000000000000604000       000000000000347232829622768030400AP009664010203040500000000000000000000000Q300058 604604000000000000000 000000000000000000000489000000000489
01PRO1INTBIB702068        PRO1MAYN8109000000155211   00010001310210001502121315644858904440212131564486036035021213156448983395310012917344588100129000000000000000000005166220000000960429530000000000001011000109242321000005622 0000000000000000000400000000014000000000000114707500000000114707500000000000000SOR MANUELA GIL 151 QUINDEL QUINDE SHOPPING CENCAJAMARCA    N 0PE0000000000000000000000000000604000       000000000000347232829622768030400AP009685010203040500000000000000000000000Q300058 604604000000000000000 000000000000000001147075000001147075
01PRO1INTBIB702745        PRO1MAYN8109000000155138   00010001310210001502121315545176219310212131554517716794021213155452153449610012914483761100129000000000000000000002270220000000960429530000000000001011000109242321000005479 0000000000000000000400000000000200000000000000298400000000000298400000000000000JR.JOSE SABOGAL 329 CMAC.CMAC.SULLANA CAJAMARCACAJAMARCA    W 0PE0000000000000000000000000000604000       000000000000347232829622768030400AP009655010203040500000000000000000000000Q300058 604604000000000000000 000000000000000000002984000000002984
01PRO1INTBIB702745        PRO1MAYN8109000000155138   00010001310210001502121315545571254590212131554557385339021213155456066512410012914491711100129000000000000000000002271220000000960429530000000000001011000109242321000005479 0000000000000000000400000000000200000000000000098300000000000098300000000000000JR.JOSE SABOGAL 329 CMAC.CMAC.SULLANA CAJAMARCACAJAMARCA    W 0PE0000000000000000000000000000604000       000000000000347232829622768030400AP009656010203040500000000000000000000000Q300058 604604000000000000000 000000000000000000000983000000000983
01PRO1INTBIB740051        PRO1MAYN8109000000172620   00010001310210001502121315550309949690212131555031060470021213155503432372710012914571099100129000000000000000000002070220000000960429530000000000001011000109012321000587087 0000000000000000000400000000004000000000000178356100000000178356100000000000000JR.PROSPERO 330 ATM/TDA.ITIENDA 740 IQUITOS I  IQUITOS      N 0PE0000000000000000000000000000604000       000000000000347232829622768030400AP009659010203040500000000000000000000000Q300058 604604000000000000000 000000000000000001783561000001783561
01PRO1INTBIB740051        PRO1MAYN8109000000172620   00010001310210001502121315550866468170212131555086834033021213155509016249510012914580663100129000000000000000000002071220000000960429530000000000001011000109012321000587087 0000000000000000000400000000003000000000000175354600000000175354600000000000000JR.PROSPERO 330 ATM/TDA.ITIENDA 740 IQUITOS I  IQUITOS      N 0PE0000000000000000000000000000604000       000000000000347232829622768030400AP009660010203040500000000000000000000000Q300058 604604000000000000000 000000000000000001753546000001753546
01PRO1INTBIB740051        PRO1MAYN8109000000001357   0001000131021000150212131573786470198021213157378656482402121315737898712771001292009464610012900000000000000000000217722000000096042953000000000000301100109012321000515671  0000000000000000000400000000000000000000000000009700000000000009700000000000000JR.PROSPERO 330 ATM/TDA.ITIENDA 740 IQUITOS I  IQUITOS      N 0PE0000000000000000000000000000604000       000000000000347232829622768030400AP009714010203040500000000000000000000000Q300058 604604000000000000000 000000000000000000000000000000000000
01PRO1INTBIB740051        PRO1MAYN8109000000001357   00010001310210001502121315738383568830212131573838487951021213157384175742210012920103835100129000000000000000000002178220000000960429530000000000001011000000000000000000000 0000000000000000000400000000000500000000000000000000000000000000000000000000058JR.PROSPERO 330 ATM/TDA.ITIENDA 740 IQUITOS I  IQUITOS      N 0PE0000000000000000000000000000604000       000000000000347232829622768030400AP000000010203040500000000000000000000000Q300058 604604000000000000000 000000000000000000000000000000000000
01PRO1INTBIB740124        PRO1MAYN8109000000030752   00010001310210001502121315673825424870212131567382661367021213156738644379410012918230254100129000000000000000000004548220000000960429530000000000001011000109012321000623741 0000000000000000000400000000004000000000000178515600000000178515600000000000000JR.PROSPERO 330 ATM/TD.IITIENDA 740 IQUITOS II IQUITOS      N 0PE0000000000000000000000000000604000       000000000000347232829622768030400AP009692010203040500000000000000000000000Q300058 604604000000000000000 000000000000000001785156000001785156
01PRO1INTBIB740124        PRO1MAYN8109000000030752   00010001310210001502121315674201423600212131567420493142021213156742376015610012918234013100129000000000000000000004549220000000960429530000000000001011000109012321000623741 0000000000000000000400000000004000000000000174513600000000174513600000000000000JR.PROSPERO 330 ATM/TD.IITIENDA 740 IQUITOS II IQUITOS      N 0PE0000000000000000000000000000604000       000000000000347232829622768030400AP009693010203040500000000000000000000000Q300058 604604000000000000000 000000000000000001745136000001745136
01PRO1INTBIB740124        PRO1MAYN8109000000030752   00010001310210001502121315674590290200212131567459275478021213156746254708210012918241899100129000000000000000000004550220000000960429530000000000001011000109012321000623741 0000000000000000000400000000004000000000000170511600000000170511600000000000000JR.PROSPERO 330 ATM/TD.IITIENDA 740 IQUITOS II IQUITOS      N 0PE0000000000000000000000000000604000       000000000000347232829622768030400AP009694010203040500000000000000000000000Q300058 604604000000000000000 000000000000000001705116000001705116
01PRO1INTBIB740124        PRO1MAYN8109000000030752   00010001310210001502121315675018571610212131567502071491021213156750585832610012918250184100129000000000000000000004551220000000960429530000000000001011000109012321000623741 0000000000000000000400000000003000000000000167510100000000167510100000000000000JR.PROSPERO 330 ATM/TD.IITIENDA 740 IQUITOS II IQUITOS      N 0PE0000000000000000000000000000604000       000000000000347232829622768030400AP009695010203040500000000000000000000000Q300058 604604000000000000000 000000000000000001675101000001675101
01PRO1INTBIB740164        PRO1MAYN8109000000174493   00010001310210001502121315494523110700212131549452514563021213154945576833910012913241230100129000000000000000000009861220000000960429530000000000001011000109012321000609391 0000000000000000000400000000001000000000000001392900000000001392900000000000000AV.A.QUINONES KM.6 AEROPTAEROPUERT.FRSCO.SECADAIQUITOS      N 0PE0000000000000000000000000000604000       000000000000347232829622768030400AP009651010203040500000000000000000000000Q300058 604604000000000000000 000000000000000000013929000000013929
01PRO1INTBIB740220        PRO1MAYN8109000000172570   00010001310210001502121314976970279250212131497697099959021213149770134875410012823013702100129000000000000000000007859220000000960429530000000000001011000109092321000067849 0000000000000000000400000000001000000000000011790100000000011790100000000000000AV.DEL EJERCITO 1281 IQUIHIPERMERCADO PIRAMIDE LORETO       W 0PE0000000000000000000000000000604000       000000000000347232829622768030400AP009584010203040500000000000000000000000Q300058 604604000000000000000 000000000000000000117901000000117901
01PRO1INTBIB740220        PRO1MAYN8109000000004716   00010001310210001502121315408314569630212131540831557063021213154083479360210012911003145100129000000000000000000007874220000000960429530000000000001011000000000000000000000 0000000000000000000400000000001000000000000000000000000000000000000000000000053AV.DEL EJERCITO 1281 IQUIHIPERMERCADO PIRAMIDE LORETO       W 0PE0000000000000000000000000000604000       000000000000347232829622768030400AP000000010203040500000000000000000000000Q300058 604604000000000000000 000000000000000000000000000000000000
01PRO1INTBIB740220        PRO1MAYN8109000000004716   00010001310210001502121315408495761190212131540849700586021213154085295033110012911004957100129000000000000000000007875220000000960429530000000000001011000000000000000000000 0000000000000000000400000000001000000000000000000000000000000000000000000000053AV.DEL EJERCITO 1281 IQUIHIPERMERCADO PIRAMIDE LORETO       W 0PE0000000000000000000000000000604000       000000000000347232829622768030400AP000000010203040500000000000000000000000Q300058 604604000000000000000 000000000000000000000000000000000000
01PRO1INTBIB740220        PRO1MAYN8109000000004716   00010001310210001502121315408987507170212131540898898821021213154090268411810012911013874100129000000000000000000007876220000000960429530000000000001011000109092321000059943 0000000000000000000400000000001000000000000007482200000000007482200000000000000AV.DEL EJERCITO 1281 IQUIHIPERMERCADO PIRAMIDE LORETO       W 0PE0000000000000000000000000000604000       000000000000347232829622768030400AP009623010203040500000000000000000000000Q300058 604604000000000000000 000000000000000000074822000000074822
01PRO1INTBIB740220        PRO1MAYN8109000000004716   0001000131021500150212131540955474539021213154095554565702121315409593671011001291102354710012900000000000000000000787722000000096042953000960429530701100109092321000059943                     000000000000000000000000000000000000000000000000000000000001                                                                            0           0   0  0  0       0  0       0231488553081845353600A 009626010203040500000000000000000000000Q300058 604604000000000000000 000000000000000000000000000000000000
01PRO1INTBIB740694        PRO1MAYN8109000000031412   00010001310210001502121315422400160620212131542240108794021213154224386940510012911240001100129000000000000000000001398220000000960429530000000000001011000109012321000597996 0000000000000000000400000000000500000000000003015000000000003015000000000000000JR. PROSPERO 961 GALERIASGALERIAS QUISPE       IQUITOS      W 0PE0000000000000000000000000000604000       000000000000347232829622768030400AP009631010203040500000000000000000000000Q300058 604604000000000000000 000000000000000000030150000000030150
01PRO1INTBIB740694        PRO1MAYN8109000000032386   0001000131021000150212131565955116435021213156595517798702121315659584425361001291759151110012900000000000000000000142422000000096042953000000000000301100109012321000634930  0000000000000000000400000000000000000000000003994000000000003994000000000000000JR. PROSPERO 961 GALERIASGALERIAS QUISPE       IQUITOS      W 0PE0000000000000000000000000000604000       000000000000347232829622768030400AP009687010203040500000000000000000000000Q300058 604604000000000000000 000000000000000000000000000000000000
01PRO1INTBIB740694        PRO1MAYN8109000000002561   00010001310210001502121315728782909190212131572878413917021213157288376817010012919543828100129000000000000000000001446220000000960429530000000000001011000109012321000614033 0000000000000000000400000000000500000000000071829300000000071829300000000000000JR. PROSPERO 961 GALERIASGALERIAS QUISPE       IQUITOS      W 0PE0000000000000000000000000000604000       000000000000347232829622768030400AP009711010203040500000000000000000000000Q300058 604604000000000000000 000000000000000000718293000000718293
01PRO1INTBIB740749        PRO1MAYN8109000000032113   00010001310210001502121315404425106480212131540442607547021213154044584337710012910540250100129000000000000000000004609220000000960429530000000000001011000109012321000605735 0000000000000000000400000000000500000000000000056100000000000056100000000000000JR.PROSPERO 330 TDA. III TIENDA 740 IQUITOS IIIIQUITOS      N 0PE0000000000000000000000000000604000       000000000000347232829622768030400AP009621010203040500000000000000000000000Q300058 604604000000000000000 000000000000000000000561000000000561
01PRO1INTBIB740749        PRO1MAYN8109000000174410   00010001310210001502121315599254775760212131559925561015021213155992938311910012916184547100129000000000000000000004700220000000960429530000000000001011000109042321000094153 0000000000000000000400000000003000000000000002200700000000002200700000000000000JR.PROSPERO 330 TDA. III TIENDA 740 IQUITOS IIIIQUITOS      N 0PE0000000000000000000000000000604000       000000000000347232829622768030400AP009672010203040500000000000000000000000Q300058 604604000000000000000 000000000000000000022007000000022007
01PRO1INTBIB740749        PRO1MAYN8109000000028293   00010001310210001502121315765064741820212131576506552310021213157650984840710012920550647100129000000000000000000004890220000000960429530000000000001011000109012321000610968 0000000000000000000400000000000500000000000002133100000000002133100000000000000JR.PROSPERO 330 TDA. III TIENDA 740 IQUITOS IIIIQUITOS      N 0PE0000000000000000000000000000604000       000000000000347232829622768030400AP009722010203040500000000000000000000000Q300058 604604000000000000000 000000000000000000021331000000021331
01PRO1INTBIB740749        PRO1MAYN8109000000003361   00010001310210001502121315826261681710212131582626239310021213158263050714010012922370616100129000000000000000000004920220000000960429530000000000001011000109012321000633798 0000000000000000000400000000000500000000000003092300000000003092300000000000000JR.PROSPERO 330 TDA. III TIENDA 740 IQUITOS IIIIQUITOS      N 0PE0000000000000000000000000000604000       000000000000347232829622768030400AP009728010203040500000000000000000000000Q300058 604604000000000000000 000000000000000000030923000000030923
01PRO1INTBIB740836        PRO1MAYN8109000000028574   00010001310210001502121315418735102490212131541873592202021213154187683406010012911175350100129000000000000000000001584220000000960429530000000000001011000109012321000635359 0000000000000000000400000000005000000000000004992500000000004992500000000000000JR.PROSPERO 397 INKAFARMAINKAFARMA IQUITOS     IQUITOS      W 0PE0000000000000000000000000000604000       000000000000347232829622768030400AP009630010203040500000000000000000000000Q300058 604604000000000000000 000000000000000000049925000000049925
01PRO1INTBIB740836        PRO1MAYN8109000000027196   00010001310210001502121315463708486010212131546370956559021213154637470779110012912325084100129000000000000000000001590220000000960429530000000000001011000109012321000599581 0000000000000000000400000000000500000000000002500900000000002500900000000000000JR.PROSPERO 397 INKAFARMAINKAFARMA IQUITOS     IQUITOS      W 0PE0000000000000000000000000000604000       000000000000347232829622768030400AP009644010203040500000000000000000000000Q300058 604604000000000000000 000000000000000000025009000000025009
01PRO1INTBIB740933        PRO1MAYN8109000000032204   00010001310210001502121314979647944110212131497964870376021213149796868352410012823060479100129000000000000000000008189220000000960429530000000000001011000109012321000613789 0000000000000000000400000000000500000000000000421800000000000421800000000000000ESQ.JR.PROSPERO/SGTO.LORETRAGAMONEDAS CARRUSEL IQUITOS      W 0PE0000000000000000000000000000604000       000000000000347232829622768030400AP009585010203040500000000000000000000000Q300058 604604000000000000000 000000000000000000004218000000004218
01PRO1INTBIB740933        PRO1MAYN8109000000028236   00010001310210001502121315621889353260212131562189018920021213156219328303210012916562889100129000000000000000000008211220000000960429530000000000001011000109012321000627399 0000000000000000000400000000004000000000000001070700000000001070700000000000000ESQ.JR.PROSPERO/SGTO.LORETRAGAMONEDAS CARRUSEL IQUITOS      W 0PE0000000000000000000000000000604000       000000000000347232829622768030400AP009679010203040500000000000000000000000Q300058 604604000000000000000 000000000000000000010707000000010707
01PRO1INTBIB740933        PRO1MAYN8109000000028236   00010001310210001502121315622623179030212131562262898505021213156226672748210012916574230100129000000000000000000008212220000000960429530000000000001011000109012321000627399 0000000000000000000400000000001000000000000000070200000000000070200000000000000ESQ.JR.PROSPERO/SGTO.LORETRAGAMONEDAS CARRUSEL IQUITOS      W 0PE0000000000000000000000000000604000       000000000000347232829622768030400AP009680010203040500000000000000000000000Q300058 604604000000000000000 000000000000000000000702000000000702
01PRO1INTBIB740984        PRO1MAYN8109000000003932   0001000131021000150212131561740984117021213156174104748602121315617483879541001291649009810012900000000000000000000791722000000096042953000000000000301100109012322000073661  0000000000000000000400000000000000000000000000149400000000000149400000000000000JR.PROSPERO 219 BCO.TRABAAGENCIA BANTRA IQUITOSIQUITOS      W10PE0000000000000000000000000000604000       000000000000347232829622768030400AP009677010203040500000000000000000000000Q300058 840840000000000000000 000000000000000000001494000000000000
01PRO1INTBIB740984        PRO1MAYN8109000000003932   0001000131021000150212131561784056779021213156178412824902121315617909552081001291649440510012900000000000000000000791822000000096042953000000000000301100109012321000633402  0000000000000000000400000000000000000000000000000600000000000000600000000000000JR.PROSPERO 219 BCO.TRABAAGENCIA BANTRA IQUITOSIQUITOS      W10PE0000000000000000000000000000604000       000000000000347232829622768030400AP009678010203040500000000000000000000000Q300058 604604000000000000000 000000000000000000000000000000000000
01PRO1INTBIB740984        PRO1MAYN8109000000001019   00010001310210001502121315734963419480212131573496600057021213157350038640310012920045633100129000000000000000000008003220000000960429530000000000001011000109012321000597040 0000000000000000000400000000000600000000000000048100000000000048100000000000000JR.PROSPERO 219 BCO.TRABAAGENCIA BANTRA IQUITOSIQUITOS      W10PE0000000000000000000000000000604000       000000000000347232829622768030400AP009713010203040500000000000000000000000Q300058 604604000000000000000 000000000000000000000481000000000481
01PRO1INTBIB750082        PRO1MAYN8109000000151657   00010001310210001502121315288623317440212131528862391034021213152886565928010012907410232100129000000000000000000002812220000000960429530000000000001011000000000000000000000 0000000000000000000400000000003000000000000000000000000000000000000000000000058JR.MIGUEL GRAU 119 ATM/TDTIENDA 750 TARAPOTO   TARAPOTO     N 0PE0000000000000000000000000000604000       000000000000347232829622768030400AP000000010203040500000000000000000000000Q300058 604604000000000000000 000000000000000000000000000000000000
01PRO1INTBIB750082        PRO1MAYN8109000000153885   00010001310210001502121315626084307210212131562608507437021213156261225512010012917032842100129000000000000000000003050220000000960429530000000000001011000109102321000019879 0000000000000000000400000000003000000000000042961500000000042961500000000000000JR.MIGUEL GRAU 119 ATM/TDTIENDA 750 TARAPOTO   TARAPOTO     N 0PE0000000000000000000000000000604000       000000000000347232829622768030400AP009681010203040500000000000000000000000Q300058 604604000000000000000 000000000000000000429615000000429615
01PRO1INTBIB750082        PRO1MAYN8109000000151210   00010001310210001502121315773048042590212131577305459876021213157730873048910012921082480100129000000000000000000003159220000000960429530000000000001011000000000000000000000 0000000000000000000400000000000500000000000000000000000000000000000000000000053JR.MIGUEL GRAU 119 ATM/TDTIENDA 750 TARAPOTO   TARAPOTO     N 0PE0000000000000000000000000000604000       000000000000347232829622768030400AP000000010203040500000000000000000000000Q300058 604604000000000000000 000000000000000000000000000000000000
01PRO1INTBIB750082        PRO1MAYN8109000000151210   00010001310210001502121315773180305040212131577318180804021213157732143094310012921083802100129000000000000000000003160220000000960429530000000000001011000000000000000000000 0000000000000000000400000000000500000000000000000000000000000000000000000000053JR.MIGUEL GRAU 119 ATM/TDTIENDA 750 TARAPOTO   TARAPOTO     N 0PE0000000000000000000000000000604000       000000000000347232829622768030400AP000000010203040500000000000000000000000Q300058 604604000000000000000 000000000000000000000000000000000000
01PRO1INTBIB750082        PRO1MAYN8109000000151210   00010001310210001502121315773558021040212131577355968171021213157735925163510012921091579100129000000000000000000003161220000000960429530000000000001011000000000000000000000 0000000000000000000400000000000500000000000000000000000000000000000000000000168JR.MIGUEL GRAU 119 ATM/TDTIENDA 750 TARAPOTO   TARAPOTO     N 0PE0000000000000000000000000000604000       000000000000347232829622768030400AP000000010203040500000000000000000000000Q300058 604604000000000000000 000000000000000000000000000000000000
01PRO1INTBIB750314        PRO1MAYN8109000000151657   00010001310210001502121315291575018070212131529157766462021213152916103739610012907455749100129000000000000000000003565220000000960429530000000000001011000000000000000000000 0000000000000000000400000000003000000000000000000000000000000000000000000000058MARTINEZ DE COPAGNON 126 SUPERMCDO.LA INMACULADTARAPOTO     N 0PE0000000000000000000000000000604000       000000000000347232829622768030400AP000000010203040500000000000000000000000Q300058 604604000000000000000 000000000000000000000000000000000000
01PRO1INTBIB750314        PRO1MAYN8109000000151657   00010001310210001502121315324559575570212131532456048029021213153245981296510012908405595100129000000000000000000003575220000000960429530000000000001011000109102321000016471 0000000000000000000400000000003000000000000008995700000000008995700000000000000MARTINEZ DE COPAGNON 126 SUPERMCDO.LA INMACULADTARAPOTO     N 0PE0000000000000000000000000000604000       000000000000347232829622768030400AP009598010203040500000000000000000000000Q300058 604604000000000000000 000000000000000000089957000000089957
01PRO1INTBIB760376        PRO1MAYN8109000000073356   00010001310210001502121315339766289640212131533977044229021213153398029004310012909061662100129000000000000000000008305220000000960429530000000000001011000109032321000137936 0000000000000000000400000000000700000000000005427900000000005427900000000000000JR.CRNL.PORTILLO 601 CMACCMAC.HYO.AGEN.PUCALLPAPUCALLPA     W 0PE0000000000000000000000000000604000       000000000000347232829622768030400AP009600010203040500000000000000000000000Q300058 604604000000000000000 000000000000000000054279000000054279
01PRO1INTBIB760376        PRO1MAYN8109000000075211   00010001310210001502121315373329303080212131537333161300021213153733646992510012910021290100129000000000000000000008311220000000960429530000000000001011000109032321000130770 0000000000000000000400000000007000000000000019003700000000019003700000000000000JR.CRNL.PORTILLO 601 CMACCMAC.HYO.AGEN.PUCALLPAPUCALLPA     W 0PE0000000000000000000000000000604000       000000000000347232829622768030400AP009613010203040500000000000000000000000Q300058 604604000000000000000 000000000000000000190037000000190037
01PRO1INTBIB760376        PRO1MAYN8109000000102387   00010001310210001502121315432808988720212131543280967383021213154328477635210012911412089100129000000000000000000008316220000000960429530000000000001011000109032321000131482 0000000000000000000400000000002500000000000012482400000000012482400000000000000JR.CRNL.PORTILLO 601 CMACCMAC.HYO.AGEN.PUCALLPAPUCALLPA     W 0PE0000000000000000000000000000604000       000000000000347232829622768030400AP009632010203040500000000000000000000000Q300058 604604000000000000000 000000000000000000124824000000124824
01PRO1INTBIB760376        PRO1MAYN8109000000102387   0001000131021000150212131543307218174021213154330726632502121315433105077371001291141472110012900000000000000000000831722000000096042953000000000000301100109032321000131482  0000000000000000000400000000000000000000000012482400000000014983600000000000000JR.CRNL.PORTILLO 601 CMACCMAC.HYO.AGEN.PUCALLPAPUCALLPA     W 0PE0000000000000000000000000000604000       000000000000347232829622768030400AP009633010203040500000000000000000000000Q300058 604604000000000000000 000000000000000000000000000000000000
01PRO1INTBIB760376        PRO1MAYN8109000000102387   00010001310210001502121315661229125880212131566123177216021213156612696628910012918020291100129000000000000000000008340220000000960429530000000000001011000109032321000131482 0000000000000000000400000000001500000000000010981700000000010981700000000000000JR.CRNL.PORTILLO 601 CMACCMAC.HYO.AGEN.PUCALLPAPUCALLPA     W 0PE0000000000000000000000000000604000       000000000000347232829622768030400AP009688010203040500000000000000000000000Q300058 604604000000000000000 000000000000000000109817000000109817
01PRO1INTBIB760376        PRO1MAYN8109000000074495   0001000131021000150212131569944889365021213156994493803402121315699486952001001291905448810012900000000000000000000835322000000096042953000000000000301100109032321000129909  0000000000000000000400000000000000000000000001077000000000001077000000000000000JR.CRNL.PORTILLO 601 CMACCMAC.HYO.AGEN.PUCALLPAPUCALLPA     W 0PE0000000000000000000000000000604000       000000000000347232829622768030400AP009698010203040500000000000000000000000Q300058 604604000000000000000 000000000000000000000000000000000000
01PRO1INTBIB760427        PRO1MAYN8109000000075286   00010001310210001502121315459998119480212131545999878796021213154600364912510012912263980100129000000000000000000003484220000000960429530000000000001011000109032321000139416 0000000000000000000400000000001000000000000018949100000000018949100000000000000JR. CORONEL POTILLO 541  AUTOSERVICIO LOS ANDESUCAYALI      W 0PE0000000000000000000000000000604000       000000000000347232829622768030400AP009643010203040500000000000000000000000Q300058 604604000000000000000 000000000000000000189491000000189491
01PRO1INTBI0001600        PRO1MAYN8109000000082522   00010001310210001502121315324021641070212131532402458598021213153240621483610012908400215100129000000000000000000004523220000000960429530000000000001011000109032321000139271 0000000000000000000400000000005000000000000352589400000000352589400000000000000AV.A.IGLESIAS 575        B.FINANCIERO CHORRILLOLIMA         W 0PE0000000000000000000000000000604000       000000000000347232829622768030400AP009596010203040500000000000000000000000Q300058 604604000000000000000 000000000000000003525894000003525894
01PRO1INTBI5001347        PRO1MAYN8109000000103484   00010001310210001502121315390906673770212131539090743138021213153909571500510012910313066100129000000000000000000004147220000000960429530000000000001011000109022321000094234 0000000000000000000400000000005000000000000035025000000000035025000000000000000JR. HUANUCO 608          MIFARMA HUANUCO       HUANUCO      W 0PE0000000000000000000000000000604000       000000000000347232829622768030400AP009616010203040500000000000000000000000Q300058 604604000000000000000 000000000000000000350250000000350250
01PRO1INTBI7401152        PRO1MAYN8109000000030927   00010001310210001502121315046338109550212131504633889732021213150463765170610012900571380100129000000000000000000006928220000000960429530000000000001011000109012321000634344 0000000000000000000400000000000200000000000000114700000000000114700000000000000CALLE NAPO 140 - 150     TRAG.MONTECARLO IQUITOIQUITOS      W 0PE0000000000000000000000000000604000       000000000000347232829622768030400AP009589010203040500000000000000000000000Q300058 604604000000000000000 000000000000000000001147000000001147
01PRO1INTBI7401152        PRO1MAYN8109000000030927   00010001310210001502121315741072252250212131574107312944021213157411109371710012920150721100129000000000000000000006944220000000960429530000000000001011000109012321000634344 0000000000000000000400000000000200000000000000814100000000000814100000000000000CALLE NAPO 140 - 150     TRAG.MONTECARLO IQUITOIQUITOS      W 0PE0000000000000000000000000000604000       000000000000347232829622768030400AP009715010203040500000000000000000000000Q300058 604604000000000000000 000000000000000000008141000000008141
01PRO1INTBI7401165        PRO1MAYN8109000000194673   00010001310210001502121315517883215390212131551788383581021213155179219113510012914030831100129000000000000000000002244220000000960429530000000000001011000109312321000002208 0000000000000000000400000000009500000000000075110200000000075110200000000000000AV. LA MARINA 944        GRIFO SERVICENTRO IP  IQUITOS      N 0PE0000000000000000000000000000604000       000000000000347232829622768030400AP009653010203040500000000000000000000000Q300058 604604000000000000000 000000000000000000751102000000751102
01PRO1INTBI7401165        PRO1MAYN8109000000171069   00010001310210001502121315546765629710212131554676707806021213155468005541310012914511655100129000000000000000000002247220000000960429530000000000001011000109092321000081345 0000000000000000000400000000000200000000000021825700000000021825700000000000000AV. LA MARINA 944        GRIFO SERVICENTRO IP  IQUITOS      N 0PE0000000000000000000000000000604000       000000000000347232829622768030400AP009658010203040500000000000000000000000Q300058 604604000000000000000 000000000000000000218257000000218257
01PRO1INTBI7401166        PRO1MAYN8109000000001332   0001000131021000150212131576210122085021213157621053267502121315762143069911001292050100810012900000000000000000000177022000000096042953000000000000301100109012321000389510  0000000000000000000400000000000000000000000000003700000000000003700000000000000CL. 9 DE DICIEMBRE 682   GRIFO PAMPACHICA      IQUITOS      N 0PE0000000000000000000000000000604000       000000000000347232829622768030400AP009720010203040500000000000000000000000Q300058 604604000000000000000 000000000000000000000000000000000000
01PRO1INTBI7401168        PRO1MAYN8109000000261829   0001000131021000150212131530438358321021213153043840354602121315304421590391001290807183510012900000000000000000000411322000000096042953000000000000301200109092341000002097  0000000000000000000400000000000000000000000000045700000000003187500000000000000AV. LA MARINA 285        CLINICA ANA STAHL     IQUITOS      N 0PE0000000000000000000000000000604000       000000000000347232829622768030400AP009594010203040500000000000000000000000Q300058 604604000000000000000 000000000000000000000000000000000000
01PRO1INTBI7401374        PRO1MAYN8109000000028491   00010001310210001502121315022619604820212131502262047111021213150226527812010012900174195100129000000000000000000006583220000000960429530000000000001011000109012321000635405 0000000000000000000400000000000700000000000000298200000000000298200000000000000JR. 9 DE DICIEMBRE 333   TIENDA BELEN          IQUITOS      N 0PE0000000000000000000000000000604000       000000000000347232829622768030400AP009587010203040500000000000000000000000Q300058 604604000000000000000 000000000000000000002982000000002982
01PRO1INTBI7401374        PRO1MAYN8109000000190226   00010001310210001502121315324449469960212131532445042765021213153244888309710012908404494100129000000000000000000006631220000000960429530000000000001011000109012321000620653 0000000000000000000400000000002000000000000008311200000000008311200000000000000JR. 9 DE DICIEMBRE 333   TIENDA BELEN          IQUITOS      N 0PE0000000000000000000000000000604000       000000000000347232829622768030400AP009597010203040500000000000000000000000Q300058 604604000000000000000 000000000000000000083112000000083112
01PRO1INTBI7401374        PRO1MAYN8109000000031446   0001000131021000150212131534733916817021213153473396870102121315347372313451001290918539110012900000000000000000000665122000000096042953000000000000301100109042321000113590  0000000000000000000400000000000000000000000001402400000000001402400000000000000JR. 9 DE DICIEMBRE 333   TIENDA BELEN          IQUITOS      N 0PE0000000000000000000000000000604000       000000000000347232829622768030400AP009602010203040500000000000000000000000Q300058 604604000000000000000 000000000000000000000000000000000000
01PRO1INTBI7401374        PRO1MAYN8109000000031446   00010001310210001502121315347677405810212131534767804506021213153477106192110012909192773100129000000000000000000006652220000000960429530000000000001011000109042321000113590 0000000000000000000400000000000200000000000001202300000000001202300000000000000JR. 9 DE DICIEMBRE 333   TIENDA BELEN          IQUITOS      N 0PE0000000000000000000000000000604000       000000000000347232829622768030400AP009603010203040500000000000000000000000Q300058 604604000000000000000 000000000000000000012023000000012023
01PRO1INTBI7401374        PRO1MAYN8109000000031446   00010001310210001502121315347950531100212131534795208937021213153479847522110012909195504100129000000000000000000006653220000000960429530000000000001011000109042321000113590 0000000000000000000400000000000200000000000001002200000000001002200000000000000JR. 9 DE DICIEMBRE 333   TIENDA BELEN          IQUITOS      N 0PE0000000000000000000000000000604000       000000000000347232829622768030400AP009604010203040500000000000000000000000Q300058 604604000000000000000 000000000000000000010022000000010022
01PRO1INTBI7401374        PRO1MAYN8109000000188550   00010001310210001502121315367990558860212131536799164440021213153680293547710012909531899100129000000000000000000006675220000000960429530000000000001011000109042321000104973 0000000000000000000400000000000700000000000007539200000000007539200000000000000JR. 9 DE DICIEMBRE 333   TIENDA BELEN          IQUITOS      N 0PE0000000000000000000000000000604000       000000000000347232829622768030400AP009609010203040500000000000000000000000Q300058 604604000000000000000 000000000000000000075392000000075392
01PRO1INTBI7401374        PRO1MAYN8109000000188550   00010001310210001502121315368291234510212131536829224541021213153683245477110012909534912100129000000000000000000006676220000000960429530000000000001011000109042321000104973 0000000000000000000400000000000500000000000007039000000000007039000000000000000JR. 9 DE DICIEMBRE 333   TIENDA BELEN          IQUITOS      N 0PE0000000000000000000000000000604000       000000000000347232829622768030400AP009610010203040500000000000000000000000Q300058 604604000000000000000 000000000000000000070390000000070390
01PRO1INTBI7401374        PRO1MAYN8109000000032717   00010001310210001502121315372629366960212131537263011798021213153726629856210012910010293100129000000000000000000006679220000000960429530000000000001011000109012321000597155 0000000000000000000400000000001000000000000000207100000000000207100000000000000JR. 9 DE DICIEMBRE 333   TIENDA BELEN          IQUITOS      N 0PE0000000000000000000000000000604000       000000000000347232829622768030400AP009612010203040500000000000000000000000Q300058 604604000000000000000 000000000000000000002071000000002071
01PRO1INTBI7401374        PRO1MAYN8109000000029580   00010001310210001502121315373738712190212131537373981937021213153737723573310012910025386100129000000000000000000006682220000000960429530000000000001011000109012321000629855 0000000000000000000400000000002000000000000001189800000000001189800000000000000JR. 9 DE DICIEMBRE 333   TIENDA BELEN          IQUITOS      N 0PE0000000000000000000000000000604000       000000000000347232829622768030400AP009614010203040500000000000000000000000Q300058 604604000000000000000 000000000000000000011898000000011898
01PRO1INTBI7401374        PRO1MAYN8109000000190226   00010001310210001502121315417629849160212131541763104193021213154176666673310012911160298100129000000000000000000006711220000000960429530000000000001011000109012321000620653 0000000000000000000400000000001000000000000007310700000000007310700000000000000JR. 9 DE DICIEMBRE 333   TIENDA BELEN          IQUITOS      N 0PE0000000000000000000000000000604000       000000000000347232829622768030400AP009629010203040500000000000000000000000Q300058 604604000000000000000 000000000000000000073107000000073107
01PRO1INTBI7401374        PRO1MAYN8109000000172562   00010001310210001502121315441816429640212131544182406131021213154418569057810012911562162100129000000000000000000006725220000000960429530000000000001011000109092321000081311 0000000000000000000400000000001000000000000012019900000000012019900000000000000JR. 9 DE DICIEMBRE 333   TIENDA BELEN          IQUITOS      N 0PE0000000000000000000000000000604000       000000000000347232829622768030400AP009638010203040500000000000000000000000Q300058 604604000000000000000 000000000000000000120199000000120199
01PRO1INTBI7401374        PRO1MAYN8109000000003437   0001000131021000150212131545033056446021213154503310920102121315450363814731001291210330510012900000000000000000000673622000000096042953000000000000301100109012321000633321  0000000000000000000400000000000000000000000000300000000000000300000000000000000JR. 9 DE DICIEMBRE 333   TIENDA BELEN          IQUITOS      N 0PE0000000000000000000000000000604000       000000000000347232829622768030400AP009639010203040500000000000000000000000Q300058 604604000000000000000 000000000000000000000000000000000000
01PRO1INTBI7401374        PRO1MAYN8109000000003411   00010001310210001502121315685919481510212131568592168495021213156859650288410012918431194100129000000000000000000006920220000000960429530000000000001011000109012321000633682 0000000000000000000400000000000200000000000001501300000000001501300000000000000JR. 9 DE DICIEMBRE 333   TIENDA BELEN          IQUITOS      N 0PE0000000000000000000000000000604000       000000000000347232829622768030400AP009696010203040500000000000000000000000Q300058 604604000000000000000 000000000000000000015013000000015013
01PRO1INTBI7401374        PRO1MAYN8109000000002017   00010001310210001502121315702718851370212131570272110448021213157027547296710012919111188100129000000000000000000006958220000000960429530000000000001011000109012321000389544 0000000000000000000400000000002000000000000008632600000000008632600000000000000JR. 9 DE DICIEMBRE 333   TIENDA BELEN          IQUITOS      N 0PE0000000000000000000000000000604000       000000000000347232829622768030400AP009700010203040500000000000000000000000Q300058 604604000000000000000 000000000000000000086326000000086326
01PRO1INTBI7401374        PRO1MAYN8109000000031636   00010001310210001502121315744365350490212131574436602648021213157443986033810012920203653100129000000000000000000007001220000000960429530000000000001011000109012321000523623 0000000000000000000400000000008800000000000002682100000000002682100000000000000JR. 9 DE DICIEMBRE 333   TIENDA BELEN          IQUITOS      N 0PE0000000000000000000000000000604000       000000000000347232829622768030400AP009716010203040500000000000000000000000Q300058 604604000000000000000 000000000000000000026821000000026821
01PRO1INTBI7401374        PRO1MAYN8109000000031636   00010001310210001502121315744832890800212131574483383019021213157448718057610012920212328100129000000000000000000007002220000000960429530000000000008100000000000000000000000 0000000000000000000400000000000000000000000000000000000000000000000000000000001JR. 9 DE DICIEMBRE 333   TIENDA BELEN          IQUITOS      N 0PE0000000000000000000000000000604000       000000000000347232829622768030400AP009717010203040500000000000000000000000Q300058 000604000000000000000 000000000000000000000000000000000000
01PRO1INTBI7401374        PRO1MAYN8109000000031636   0001000131021500150212131574502069203021213157450328416202121315745091636611001292021420610012900000000000000000000700322000000096042953000960429530701100109012321000523623                     000000000000000000000000000000000000000000000000000000000001                                                                            0           0   0  0  0       0  0       0231488553081845353600A 009718010203040500000000000000000000000Q300058 604604000000000000000 000000000000000000000000000000000000
01PRO1INTBI7401374        PRO1MAYN8109000000001464   0001000131021000150212131576249984769021213157625002708702121315762532677821001292050499810012900000000000000000000702622000000096042953000000000000301100109092321000038482  0000000000000000000400000000000000000000000000002800000000000002800000000000000JR. 9 DE DICIEMBRE 333   TIENDA BELEN          IQUITOS      N 0PE0000000000000000000000000000604000       000000000000347232829622768030400AP009721010203040500000000000000000000000Q300058 604604000000000000000 000000000000000000000000000000000000
01PRO1INTBI7401374        PRO1MAYN8109000000172497   0001000131021000150212131579822535776021213157982257713702121315798258133381001292150225310012900000000000000000000704722000000096042953000000000000301200109012341000025046  0000000000000000000400000000000000000000000000490500000000000490500000000000000JR. 9 DE DICIEMBRE 333   TIENDA BELEN          IQUITOS      N 0PE0000000000000000000000000000604000       000000000000347232829622768030400AP009726010203040500000000000000000000000Q300058 604604000000000000000 000000000000000000000000000000000000
01PRO1INTBI7401374        PRO1MAYN8109000000172497   00010001310210001502121315798504264330212131579850496745021213157985374476810012921505042100129000000000000000000007048220000000960429530000000000001012000109012341000025046 0000000000000000000400000000000400000000000000090500000000000090500000000000000JR. 9 DE DICIEMBRE 333   TIENDA BELEN          IQUITOS      N 0PE0000000000000000000000000000604000       000000000000347232829622768030400AP009727010203040500000000000000000000000Q300058 604604000000000000000 000000000000000000000905000000000905
01PRO1INTBI7401394        PRO1MAYN8109000000171200   00010001310210001502121315713737448420212131571373819945021213157137760032910012919293373100129000000000000000000003685220000000960429530000000000001011000109092321000078786 0000000000000000000400000000000400000000000003434300000000003434300000000000000JR ELIAS AGUIRRE 1114    BOTICAS KEVIN CENTRO  IQUITOS      W 0PE0000000000000000000000000000604000       000000000000347232829622768030400AP009703010203040500000000000000000000000Q300058 604604000000000000000 000000000000000000034343000000034343
01PRO1INTBI7401396        PRO1MAYN8109000000028038   00010001310210001502121315371108864500212131537110962651021213153711473530410012909583088100129000000000000000000004283220000000960429530000000000001011000109012321000563811 0000000000000000000400000000000200000000000002508100000000002508100000000000000JR.PROSERES/SGTO.LORES   TDA.M.EXCHANGE IQUITOSIQUITOS      N 0PE0000000000000000000000000000604000       000000000000347232829622768030400AP009611010203040500000000000000000000000Q300058 604604000000000000000 000000000000000000025081000000025081
01PRO1INTBI7401396        PRO1MAYN8109000000029374   00010001310210001502121315408430613320212131540843283266021213154084707544610012911004305100129000000000000000000004315220000000960429530000000000001011000109042322000009067 0000000000000000000400000000001000000000000001028300000000001028300000000000000JR.PROSERES/SGTO.LORES   TDA.M.EXCHANGE IQUITOSIQUITOS      N 0PE0000000000000000000000000000604000       000000000000347232829622768030400AP009622010203040500000000000000000000000Q300058 840840000000000000000 000000010000000000010283000000000000
01PRO1INTBI7401396        PRO1MAYN8109000000003882   00010001310210001502121315436762584930212131543676371216021213154367963153810012911475625100129000000000000000000004343220000000960429530000000000001011000109012321000625850 0000000000000000000400000000003000000000000067022500000000067022500000000000000JR.PROSERES/SGTO.LORES   TDA.M.EXCHANGE IQUITOSIQUITOS      N 0PE0000000000000000000000000000604000       000000000000347232829622768030400AP009636010203040500000000000000000000000Q300058 604604000000000000000 000000000000000000670225000000670225
01PRO1INTBI7401396        PRO1MAYN8109000000027428   00010001310210001502121315592683285450212131559268424312021213155927219012910012916074832100129000000000000000000004426220000000960429530000000000001011000109012321000626457 0000000000000000000400000000002500000000000015103200000000015103200000000000000JR.PROSERES/SGTO.LORES   TDA.M.EXCHANGE IQUITOSIQUITOS      N 0PE0000000000000000000000000000604000       000000000000347232829622768030400AP009670010203040500000000000000000000000Q300058 604604000000000000000 000000000000000000151032000000151032
01PRO1INTBI7401396        PRO1MAYN8109000000027428   00010001310210001502121315612114899220212131561211684163021213156121551960610012916401148100129000000000000000000004443220000000960429530000000000001011000109012321000626457 0000000000000000000400000000005000000000000010100700000000010100700000000000000JR.PROSERES/SGTO.LORES   TDA.M.EXCHANGE IQUITOSIQUITOS      N 0PE0000000000000000000000000000604000       000000000000347232829622768030400AP009676010203040500000000000000000000000Q300058 604604000000000000000 000000000000000000101007000000101007
01PRO1INTBI7401396        PRO1MAYN8109000000172620   00010001310210001502121315650859406430212131565086024126021213156508979290310012917444593100129000000000000000000004489220000000960429530000000000001011000109012321000587087 0000000000000000000400000000007000000000000168351100000000168351100000000000000JR.PROSERES/SGTO.LORES   TDA.M.EXCHANGE IQUITOSIQUITOS      N 0PE0000000000000000000000000000604000       000000000000347232829622768030400AP009686010203040500000000000000000000000Q300058 604604000000000000000 000000000000000001683511000001683511
01PRO1INTBI7401396        PRO1MAYN8109000000032386   00010001310210001502121315669330353530212131566933157889021213156693690777910012918153303100129000000000000000000004517220000000960429530000000000001011000109012321000634930 0000000000000000000400000000000200000000000003793900000000003793900000000000000JR.PROSERES/SGTO.LORES   TDA.M.EXCHANGE IQUITOSIQUITOS      N 0PE0000000000000000000000000000604000       000000000000347232829622768030400AP009690010203040500000000000000000000000Q300058 604604000000000000000 000000000000000000037939000000037939
01PRO1INTBI7401396        PRO1MAYN8109000000028038   00010001310210001502121315721391704780212131572139664052021213157214356969810012919421911100129000000000000000000004607220000000960429530000000000001011000109012321000563811 0000000000000000000400000000000200000000000002308000000000002308000000000000000JR.PROSERES/SGTO.LORES   TDA.M.EXCHANGE IQUITOSIQUITOS      N 0PE0000000000000000000000000000604000       000000000000347232829622768030400AP009706010203040500000000000000000000000Q300058 604604000000000000000 000000000000000000023080000000023080
01PRO1INTBI7401396        PRO1MAYN8109000000168511   0001000131021000150212131572529230321021213157252929799402121315725351261741001291948491810012900000000000000000000461122000000096042953000000000000301100109092321000052388  0000000000000000000400000000000000000000000000001900000000000001900000000000000JR.PROSERES/SGTO.LORES   TDA.M.EXCHANGE IQUITOSIQUITOS      N 0PE0000000000000000000000000000604000       000000000000347232829622768030400AP009710010203040500000000000000000000000Q300058 604604000000000000000 000000000000000000000000000000000000
01PRO1INTBI7401432        PRO1MAYN8109000000168990   00010001310210001502121315434423982550212131543442478678021213154344583452510012911440239100129000000000000000000001260220000000960429530000000000001011000109092321000092380 0000000000000000000400000000000200000000000000099100000000000099100000000000000JR. 9 DE DICIEMBRE 333   TIENDA BELEN II PLUS  LORETO       W 0PE0000000000000000000000000000604000       000000000000347232829622768030400AP009634010203040500000000000000000000000Q300058 604604000000000000000 000000000000000000000991000000000991
01PRO1MAYNI7401599        PRO1MAYN8109000000261084   0001000131021000150212131544052381072021213154405243450502121315440556925031001291154123710012900000000000000000000325722000000096042953000000000000301200109012341000020249  0000000000000000000400000000000000000000000001165100000000008104800000000000000JR. PROSPERO 791         LAB.PRUEBA CMAC MAYNASMAYNAS       W  PE0000000000000000000000000000604000       000000000000347232829622768030400AP009637010203040500000000000000000000000Q300058 604604000000000000000 000000000000000000000000000000000000
01PRO1MAYNI7401599        PRO1MAYN8109000000000292   00010001310210001502121315483264303520212131548326522569021213154833029006710012913052642100129000000000000000000003263220000000960429530000000000001011000109012321000464236 0000000000000000000400000000001000000000000083736700000000083736700000000000000JR. PROSPERO 791         LAB.PRUEBA CMAC MAYNASMAYNAS       W  PE0000000000000000000000000000604000       000000000000347232829622768030400AP009648010203040500000000000000000000000Q300058 604604000000000000000 000000000000000000837367000000837367
01PRO1MAYNI7401599        PRO1MAYN8109000000002827   00010001310210001502121315492491526540212131549249238912021213154925248619910012913204915100129000000000000000000003264220000000960429530000000000001011000109042321000101516 0000000000000000000400000000001000000000000013392100000000013392100000000000000JR. PROSPERO 791         LAB.PRUEBA CMAC MAYNASMAYNAS       W  PE0000000000000000000000000000604000       000000000000347232829622768030400AP009649010203040500000000000000000000000Q300058 604604000000000000000 000000000000000000133921000000133921
01PRO1MAYNI7401599        PRO1MAYN8109000000000292   00010001310210001502121315582352555580212131558235336207021213155823960637910012915503525100129000000000000000000003269220000000960429530000000000001011000109012321000464236 0000000000000000000400000000000700000000000083036700000000083036700000000000000JR. PROSPERO 791         LAB.PRUEBA CMAC MAYNASMAYNAS       W  PE0000000000000000000000000000604000       000000000000347232829622768030400AP009669010203040500000000000000000000000Q300058 604604000000000000000 000000000000000000830367000000830367
01PRO1MAYNI7401599        PRO1MAYN8109000000003437   0001000131021000150212131569978474891021213156997887466402121315699821658721001291906184610012900000000000000000000327222000000096042953000000000000301100109012321000633321  0000000000000000000400000000000000000000000000050000000000000300000000000000000JR. PROSPERO 791         LAB.PRUEBA CMAC MAYNASMAYNAS       W 0PE0000000000000000000000000000604000       000000000000347232829622768030400AP009699010203040500000000000000000000000Q300058 604604000000000000000 000000000000000000000000000000000000
01PRO1MAYNI7401599        PRO1MAYN8109000000001282   00010001310210001502121315713279932890212131571328113378021213157133190029910012919284799100129000000000000000000003275220000000960429530000000000001011000109012321000555711 0000000000000000000400000000002500000000000019588100000000019588100000000000000JR. PROSPERO 791         LAB.PRUEBA CMAC MAYNASMAYNAS       W 0PE0000000000000000000000000000604000       000000000000347232829622768030400AP009702010203040500000000000000000000000Q300058 604604000000000000000 000000000000000000195881000000195881
01PRO1MAYNI7401599        PRO1MAYN8109000000002264   00010001310210001502121315720521559660212131572052458024021213157205623178810012919405215100129000000000000000000003276220000000960429530000000000001011000109012321000464261 0000000000000000000400000000000200000000000000065600000000000065600000000000000JR. PROSPERO 791         LAB.PRUEBA CMAC MAYNASMAYNAS       W 0PE0000000000000000000000000000604000       000000000000347232829622768030400AP009704010203040500000000000000000000000Q300058 604604000000000000000 000000000000000000000656000000000656
01PRO1MAYNI7401599        PRO1MAYN8109000000002264   00010001310210001502121315720778124510212131572078058744021213157208188227510012919411779100129000000000000000000003277220000000960429530000000000001012000109012341000002488 0000000000000000000400000000000200000000000000088200000000000088200000000000000JR. PROSPERO 791         LAB.PRUEBA CMAC MAYNASMAYNAS       W 0PE0000000000000000000000000000604000       000000000000347232829622768030400AP009705010203040500000000000000000000000Q300058 604604000000000000000 000000000000000000000882000000000882
01PRO1MAYNI7401599        PRO1MAYN8109000000001340   00010001310210001502121315721835381590212131572183644827021213157218895064510012919430353100129000000000000000000003278220000000960429530000000000001011000109012321000263575 0000000000000000000400000000001000000000000005091000000000005091000000000000000JR. PROSPERO 791         LAB.PRUEBA CMAC MAYNASMAYNAS       W 0PE0000000000000000000000000000604000       000000000000347232829622768030400AP009707010203040500000000000000000000000Q300058 604604000000000000000 000000000000000000050910000000050910
01PRO1MAYNI7401599        PRO1MAYN8109000000002819   00010001310210001502121315722322927510212131572232407485021213157223569265010012919435228100129000000000000000000003279220000000960429530000000000001011000109012321000156370 0000000000000000000400000000000700000000000001277800000000001277800000000000000JR. PROSPERO 791         LAB.PRUEBA CMAC MAYNASMAYNAS       W 0PE0000000000000000000000000000604000       000000000000347232829622768030400AP009708010203040500000000000000000000000Q300058 604604000000000000000 000000000000000000012778000000012778
01PRO1MAYNI7401599        PRO1MAYN8109000000000136   00010001310210001502121315732361233580212131573236219543021213157324001898210012920003612100129000000000000000000003280220000000960429530000000000001011000109012321000057851 0000000000000000000400000000000500000000000000278300000000000278300000000000000JR. PROSPERO 791         LAB.PRUEBA CMAC MAYNASMAYNAS       W 0PE0000000000000000000000000000604000       000000000000347232829622768030400AP009712010203040500000000000000000000000Q300058 604604000000000000000 000000000000000000002783000000002783
01PRO1MAYNI7401645        PRO1MAYN8109000000030471   00010001310210001502121315023644208040212131502364496818021213150236774723310012900192441100129000000000000000000009716220000000960429530000000000001011000109012321000636436 0000000000000000000400000000000500000000000017489900000000017489900000000000000JR. PROSPERO 791         CMAC MAYNAS J.PROSPEROLORETO       W 0PE0000000000000000000000000000604000       000000000000347232829622768030400AP009588010203040500000000000000000000000Q300058 604604000000000000000 000000000000000000174899000000174899
01PRO1MAYNI7401645        PRO1MAYN8109000000027659   00010001310210001502121315301175607970212131530117644974021213153012140814410012908015755100129000000000000000000009719220000000960429530000000000001011000109012321000630896 0000000000000000000400000000010000000000000010212100000000010212100000000000000JR. PROSPERO 791         CMAC MAYNAS J.PROSPEROLORETO       W 0PE0000000000000000000000000000604000       000000000000347232829622768030400AP009593010203040500000000000000000000000Q300058 604604000000000000000 000000000000000000102121000000102121
01PRO1MAYNI7401645        PRO1MAYN8109000000028590   00010001310210001502121315315176308010212131531517804771021213153152158301510012908251762100129000000000000000000009720220000000960429530000000000001011000109062321000043109 0000000000000000000400000000002000000000000011057000000000011057000000000000000JR. PROSPERO 791         CMAC MAYNAS J.PROSPEROLORETO       W 0PE0000000000000000000000000000604000       000000000000347232829622768030400AP009595010203040500000000000000000000000Q300058 604604000000000000000 000000000000000000110570000000110570
01PRO1MAYNI7401645        PRO1MAYN8109000000030208   00010001310210001502121315343351415550212131534335287820021213153433851875210012909121513100129000000000000000000009723220000000960429530000000000001011000109012321000619922 0000000000000000000400000000002000000000000007518600000000007518600000000000000JR. PROSPERO 791         CMAC MAYNAS J.PROSPEROLORETO       W 0PE0000000000000000000000000000604000       000000000000347232829622768030400AP009601010203040500000000000000000000000Q300058 604604000000000000000 000000000000000000075186000000075186
01PRO1MAYNI7401645        PRO1MAYN8109000000172570   00010001310210001502121315350754277860212131535075490909021213153507871182710012909243542100129000000000000000000009725220000000960429530000000000001011000109092321000067849 0000000000000000000400000000000500000000000011289900000000011289900000000000000JR. PROSPERO 791         CMAC MAYNAS J.PROSPEROLORETO       W 0PE0000000000000000000000000000604000       000000000000347232829622768030400AP009605010203040500000000000000000000000Q300058 604604000000000000000 000000000000000000112899000000112899
01PRO1MAYNI7401645        PRO1MAYN8109000000003668   00010001310210001502121315364615044540212131536461673016021213153646543796410012909474150100129000000000000000000009726220000000960429530000000000001011000109042321000115258 0000000000000000000400000000000500000000000009858900000000009858900000000000000JR. PROSPERO 791         CMAC MAYNAS J.PROSPEROLORETO       W 0PE0000000000000000000000000000604000       000000000000347232829622768030400AP009608010203040500000000000000000000000Q300058 604604000000000000000 000000000000000000098589000000098589
01PRO1MAYNI7401645        PRO1MAYN8109000000028509   00010001310210001502121315399885120630212131539988578892021213153999335084410012910462850100129000000000000000000009727220000000960429530000000000001011000109012321000635391 0000000000000000000400000000001000000000000005128900000000005128900000000000000JR. PROSPERO 791         CMAC MAYNAS J.PROSPEROLORETO       W 0PE0000000000000000000000000000604000       000000000000347232829622768030400AP009617010203040500000000000000000000000Q300058 604604000000000000000 000000000000000000051289000000051289
01PRO1MAYNI7401645        PRO1MAYN8109000000168586   00010001310210001502121315402863390350212131540286402501021213154029014147410012910512633100129000000000000000000009728220000000960429530000000000001011000109042321000097802 0000000000000000000400000000000500000000000005041200000000005041200000000000000JR. PROSPERO 791         CMAC MAYNAS J.PROSPEROLORETO       W 0PE0000000000000000000000000000604000       000000000000347232829622768030400AP009620010203040500000000000000000000000Q300058 604604000000000000000 000000000000000000050412000000050412
01PRO1MAYNI7401645        PRO1MAYN8109000000028095   0001000131021500150212131540919694329021213154091975116002121315409235749541001291101596910012900000000000000000000972922000000096042953000960429530701100109012321000622265                     000000000000000000000000000000000000000000000000000000000001                                                                            0           0   0  0  0       0  0       0231488553081845353600A 009624010203040500000000000000000000000Q300058 604604000000000000000 000000000000000000000000000000000000
01PRO1MAYNI7401645        PRO1MAYN8109000000028095   00010001310210001502121315409515661820212131540951660647021213154095496732110012911023156100129000000000000000000009730220000000960429530000000000001011000109012321000622265 0000000000000000000400000000000500000000000000507200000000000507200000000000000JR. PROSPERO 791         CMAC MAYNAS J.PROSPEROLORETO       W 0PE0000000000000000000000000000604000       000000000000347232829622768030400AP009625010203040500000000000000000000000Q300058 604604000000000000000 000000000000000000005072000000005072
01PRO1MAYNI7401645        PRO1MAYN8109000000028111   00010001310210001502121315411484665770212131541148552451021213154115231660310012911054845100129000000000000000000009731220000000960429530000000000001011000109012321000626473 0000000000000000000400000000010000000000000020577100000000020577100000000000000JR. PROSPERO 791         CMAC MAYNAS J.PROSPEROLORETO       W 0PE0000000000000000000000000000604000       000000000000347232829622768030400AP009627010203040500000000000000000000000Q300058 604604000000000000000 000000000000000000205771000000205771
01PRO1MAYNI7401645        PRO1MAYN8109000000028053   00010001310210001502121315450671487390212131545067219152021213154507049576210012912110714100129000000000000000000009737220000000960429530000000000001011000109012321000581429 0000000000000000000400000000000500000000000001015200000000001015200000000000000JR. PROSPERO 791         CMAC MAYNAS J.PROSPEROLORETO       W 0PE0000000000000000000000000000604000       000000000000347232829622768030400AP009640010203040500000000000000000000000Q300058 604604000000000000000 000000000000000000010152000000010152
01PRO1MAYNI7401645        PRO1MAYN8109000000188576   00010001310210001502121315455803477060212131545580427346021213154558571060610012912194034100129000000000000000000009739220000000960429530000000000001011000109042321000108324 0000000000000000000400000000000200000000000000825100000000000825100000000000000JR. PROSPERO 791         CMAC MAYNAS J.PROSPEROLORETO       W 0PE0000000000000000000000000000604000       000000000000347232829622768030400AP009642010203040500000000000000000000000Q300058 604604000000000000000 000000000000000000008251000000008251
01PRO1MAYNI7401645        PRO1MAYN8109000000027428   00010001310210001502121315494112418200212131549411306824021213154941460961010012913233123100129000000000000000000009741220000000960429530000000000001011000109012321000626457 0000000000000000000400000000002500000000000017604400000000017604400000000000000JR. PROSPERO 791         CMAC MAYNAS J.PROSPEROLORETO       W 0PE0000000000000000000000000000604000       000000000000347232829622768030400AP009650010203040500000000000000000000000Q300058 604604000000000000000 000000000000000000176044000000176044
01PRO1MAYNI7401645        PRO1MAYN8109000000195407   00010001310210001502121315531426285440212131553142707534021213155314647358410012914254261100129000000000000000000009742220000000960429530000000000001011000109312321000002704 0000000000000000000400000000000400000000000000099600000000000099600000000000000JR. PROSPERO 791         CMAC MAYNAS J.PROSPEROLORETO       W 0PE0000000000000000000000000000604000       000000000000347232829622768030400AP009654010203040500000000000000000000000Q300058 604604000000000000000 000000000000000000000996000000000996
01PRO1MAYNI7401645        PRO1MAYN8109000000000912   0001000131021000150212131556467363953021213155646741937902121315564706817221001291521073610012900000000000000000000974322000000096042953000000000000301100109012321000260754  0000000000000000000400000000000000000000000003035500000000003035500000000000000JR. PROSPERO 791         CMAC MAYNAS J.PROSPEROLORETO       W 0PE0000000000000000000000000000604000       000000000000347232829622768030400AP009663010203040500000000000000000000000Q300058 604604000000000000000 000000000000000000000000000000000000
01PRO1MAYNI7401645        PRO1MAYN8109000000000912   00010001310210001502121315564784626360212131556478641994021213155648194565510012915211845100129000000000000000000009744220000000960429530000000000001011000109012321000260754 0000000000000000000400000000000200000000000002835500000000002835500000000000000JR. PROSPERO 791         CMAC MAYNAS J.PROSPEROLORETO       W 0PE0000000000000000000000000000604000       000000000000347232829622768030400AP009665010203040500000000000000000000000Q300058 604604000000000000000 000000000000000000028355000000028355
01PRO1MAYNI7401645        PRO1MAYN8109000000002256   00010001310210001502121315573064705650212131557306557315021213155730978861310012915350646100129000000000000000000009746220000000960429530000000000001011000000000000000000000 0000000000000000000400000000003600000000000000000000000000000000000000000000058JR. PROSPERO 791         CMAC MAYNAS J.PROSPEROLORETO       W 0PE0000000000000000000000000000604000       000000000000347232829622768030400AP000000010203040500000000000000000000000Q300058 604604000000000000000 000000000000000000000000000000000000
01PRO1MAYNI7401645        PRO1MAYN8109000000002256   0001000131021000150212131557315749160021213155731584823602121315573191307421001291535157410012900000000000000000000974722000000096042953000000000000301100109012321000511153  0000000000000000000400000000000000000000000000022300000000000022300000000000000JR. PROSPERO 791         CMAC MAYNAS J.PROSPEROLORETO       W 0PE0000000000000000000000000000604000       000000000000347232829622768030400AP009666010203040500000000000000000000000Q300058 604604000000000000000 000000000000000000000000000000000000
01PRO1MAYNI7401645        PRO1MAYN8109000000031073   0001000131021000150212131558165697142021213155816573945702121315581695329491001291549256810012900000000000000000000974822000000096042953000000000000301100109012321000636193  0000000000000000000400000000000000000000000059099900000000059099900000000000000JR. PROSPERO 791         CMAC MAYNAS J.PROSPEROLORETO       W 0PE0000000000000000000000000000604000       000000000000347232829622768030400AP009667010203040500000000000000000000000Q300058 604604000000000000000 000000000000000000000000000000000000
01PRO1MAYNI7401645        PRO1MAYN8109000000031073   00010001310210001502121315582120746100212131558212198323021213155821650272510012915501206100129000000000000000000009749220000000960429530000000000001011000109012321000636193 0000000000000000000400000000010000000000000049094900000000049094900000000000000JR. PROSPERO 791         CMAC MAYNAS J.PROSPEROLORETO       W 0PE0000000000000000000000000000604000       000000000000347232829622768030400AP009668010203040500000000000000000000000Q300058 604604000000000000000 000000000000000000490949000000490949
01PRO1MAYNI7401645        PRO1MAYN8109000000031628   0001000131021000150212131559932586017021213155993265199102121315599358866681001291618525810012900000000000000000000975222000000096042953000000000000301100109012321000633607  0000000000000000000400000000000000000000000034982500000000034982500000000000000JR. PROSPERO 791         CMAC MAYNAS J.PROSPEROLORETO       W 0PE0000000000000000000000000000604000       000000000000347232829622768030400AP009673010203040500000000000000000000000Q300058 604604000000000000000 000000000000000000000000000000000000
01PRO1MAYNI7401645        PRO1MAYN8109000000031628   00010001310210001502121315599754686370212131559975557569021213155997933534510012916193545100129000000000000000000009753220000000960429530000000000001011000109012321000633607 0000000000000000000400000000002000000000000032981500000000032981500000000000000JR. PROSPERO 791         CMAC MAYNAS J.PROSPEROLORETO       W 0PE0000000000000000000000000000604000       000000000000347232829622768030400AP009674010203040500000000000000000000000Q300058 604604000000000000000 000000000000000000329815000000329815
01PRO1MAYNI7401645        PRO1MAYN8109000000003171   00010001310210001502121315610842620690212131561084353249021213156108868282910012916380425100129000000000000000000009754220000000960429530000000000001011000109012321000571181 0000000000000000000400000000000500000000000002622500000000002622500000000000000JR. PROSPERO 791         CMAC MAYNAS J.PROSPEROLORETO       W 0PE0000000000000000000000000000604000       000000000000347232829622768030400AP009675010203040500000000000000000000000Q300058 604604000000000000000 000000000000000000026225000000026225
01PRO1MAYNI7401645        PRO1MAYN8109000000028988   0001000131021000150212131562818470783021213156281850732102121315628217579831001291706584610012900000000000000000000975522000000096042953000000000000301100109012321000628565  0000000000000000000400000000000000000000000002995800000000002995800000000000000JR. PROSPERO 791         CMAC MAYNAS J.PROSPEROLORETO       W 0PE0000000000000000000000000000604000       000000000000347232829622768030400AP009682010203040500000000000000000000000Q300058 604604000000000000000 000000000000000000000000000000000000
01PRO1MAYNI7401645        PRO1MAYN8109000000028988   00010001310210001502121315629087900600212131562908874084021213156291314118810012917082878100129000000000000000000009756220000000960429530000000000001011000109012321000628565 0000000000000000000400000000000500000000000002495600000000002495600000000000000JR. PROSPERO 791         CMAC MAYNAS J.PROSPEROLORETO       W 0PE0000000000000000000000000000604000       000000000000347232829622768030400AP009683010203040500000000000000000000000Q300058 604604000000000000000 000000000000000000024956000000024956
01PRO1MAYNI7401645        PRO1MAYN8109000000032014   0001000131021000150212131564051365159021213156405145451802121315640552405631001291727313610012900000000000000000000975822000000096042953000000000000301100109012321000629286  0000000000000000000400000000000000000000000136875900000000136875900000000000000JR. PROSPERO 791         CMAC MAYNAS J.PROSPEROLORETO       W 0PE0000000000000000000000000000604000       000000000000347232829622768030400AP009684010203040500000000000000000000000Q300058 604604000000000000000 000000000000000000000000000000000000
01PRO1MAYNI7401645        PRO1MAYN8109000000032014   00010001310210001502121315640859269220212131564086257768021213156408959743510012917280591100129000000000000000000009759220000000960429530000000000001011000000000000000000000 0000000000000000000400000000021500000000000000000000000000000000000000000000063JR. PROSPERO 791         CMAC MAYNAS J.PROSPEROLORETO       W 0PE0000000000000000000000000000604000       000000000000347232829622768030400AP000000010203040500000000000000000000000Q300058 604604000000000000000 000000000000000000000000000000000000
01PRO1MAYNI7401645        PRO1MAYN8109000000028590   00010001310210001502121315661435130560212131566144030107021213156614728437210012918022347100129000000000000000000009760220000000960429530000000000001011000109062321000043109 0000000000000000000400000000002000000000000009056000000000009056000000000000000JR. PROSPERO 791         CMAC MAYNAS J.PROSPEROLORETO       W 0PE0000000000000000000000000000604000       000000000000347232829622768030400AP009689010203040500000000000000000000000Q300058 604604000000000000000 000000000000000000090560000000090560
01PRO1MAYNI7401645        PRO1MAYN8109000000031768   00010001310210001502121315690790939540212131569079268459021213156908303805910012918511908100129000000000000000000009763220000000960429530000000000001011000109012321000586943 0000000000000000000400000000001000000000000010459600000000010459600000000000000JR. PROSPERO 791         CMAC MAYNAS J.PROSPEROLORETO       W 0PE0000000000000000000000000000604000       000000000000347232829622768030400AP009697010203040500000000000000000000000Q300058 604604000000000000000 000000000000000000104596000000104596
01PRO1MAYNI7401645        PRO1MAYN8109000000001977   0001000131021500150212131578966608161021213157896681154702121315789716764441001292136066010012900000000000000000000976422000000096042953000960429530701100109012321000401609                     000000000000000000000000000000000000000000000000000000000001                                                                            0           0   0  0  0       0  0       0231488553081845353600A 009723010203040500000000000000000000000Q300058 604604000000000000000 000000000000000000000000000000000000
01PRO1MAYNI7401645        PRO1MAYN8109000000001977   00010001310210001502121315789911312630212131578991209008021213157899444160210012921363112100129000000000000000000009765220000000960429530000000000001011000000000000000000000 0000000000000000000400000000000200000000000000000000000000000000000000000000058JR. PROSPERO 791         CMAC MAYNAS J.PROSPEROLORETO       W 0PE0000000000000000000000000000604000       000000000000347232829622768030400AP000000010203040500000000000000000000000Q300058 604604000000000000000 000000000000000000000000000000000000
01PRO1MAYNI7401646        PRO1MAYN8109000000193865   00010001310210001502121315017223086550212131501722409240021213150172615676010012900084230100129000000000000000000009419220000000960429530000000000001011000109042322000009601 0000000000000000000400000000001400000000000054281900000000054281900000000000000CL. AREQUIPA 428         CMAC MAYNAS CL.AREQUIPLORETO       W 0PE0000000000000000000000000000604000       000000000000347232829622768030400AP009586010203040500000000000000000000000Q300058 604840000000002750000 000000014000000000542819000000000000
01PRO1MAYNI7401646        PRO1MAYN8109000000003338   00010001310210001502121315354071949610212131535407433717021213153541125222410012909300718100129000000000000000000009422220000000960429530000000000001011000109012321000633828 0000000000000000000400000000001000000000000054469400000000054469400000000000000CL. AREQUIPA 428         CMAC MAYNAS CL.AREQUIPLORETO       W 0PE0000000000000000000000000000604000       000000000000347232829622768030400AP009606010203040500000000000000000000000Q300058 604604000000000000000 000000000000000000544694000000544694
01PRO1MAYNI7401646        PRO1MAYN8109000000002017   00010001310210001502121315417084257100212131541708514390021213154171559574710012911150842100129000000000000000000009423220000000960429530000000000001011000109012321000389544 0000000000000000000400000000002000000000000010632600000000010632600000000000000CL. AREQUIPA 428         CMAC MAYNAS CL.AREQUIPLORETO       W 0PE0000000000000000000000000000604000       000000000000347232829622768030400AP009628010203040500000000000000000000000Q300058 604604000000000000000 000000000000000000106326000000106326
01PRO1MAYNI7401646        PRO1MAYN8109000000197783   00010001310210001502121315435343124140212131543534397073021213154353767062210012911453430100129000000000000000000009424220000000960429530000000000001011000109012321000617504 0000000000000000000400000000003500000000000165511700000000165511700000000000000CL. AREQUIPA 428         CMAC MAYNAS CL.AREQUIPLORETO       W 0PE0000000000000000000000000000604000       000000000000347232829622768030400AP009635010203040500000000000000000000000Q300058 604604000000000000000 000000000000000001655117000001655117
01PRO1MAYNI7401646        PRO1MAYN8109000000170038   00010001310210001502121315551898909870212131555189953163021213155519322028210012914594988100129000000000000000000009429220000000960429530000000000001011000109012321000578002 0000000000000000000400000000000500000000000000524300000000000524300000000000000CL. AREQUIPA 428         CMAC MAYNAS CL.AREQUIPLORETO       W 0PE0000000000000000000000000000604000       000000000000347232829622768030400AP009661010203040500000000000000000000000Q300058 604604000000000000000 000000000000000000005243000000005243
01PRO1MAYNI7401646        PRO1MAYN8109000000174410   00010001310210001502121315761561153060212131576156507150021213157616031601710012920491611100129000000000000000000009430220000000960429530000000000001011000109042321000094153 0000000000000000000400000000002000000000000000199700000000000199700000000000000CL. AREQUIPA 428         CMAC MAYNAS CL.AREQUIPLORETO       W 0PE0000000000000000000000000000604000       000000000000347232829622768030400AP009719010203040500000000000000000000000Q300058 604604000000000000000 000000000000000000001997000000001997
01PRO1MAYNI7401646        PRO1MAYN8109000000193865   00010001310210001502121315794921413650212131579492220788021213157949599217510012921445213100129000000000000000000009432220000000960429530000000000001011000109042322000009601 0000000000000000000400000000000200000000000054081800000000054081800000000000000CL. AREQUIPA 428         CMAC MAYNAS CL.AREQUIPLORETO       W 0PE0000000000000000000000000000604000       000000000000347232829622768030400AP009724010203040500000000000000000000000Q300058 840840000000000000000 000000002000000000540818000000000000
01PRO1MAYNI7401646        PRO1MAYN8109000000193865   00010001310210001502121315795305151730212131579530607666021213157953385368510012921453050100129000000000000000000009433220000000960429530000000000001011000109042322000009601 0000000000000000000400000000004800000000000052234700000000052234700000000000000CL. AREQUIPA 428         CMAC MAYNAS CL.AREQUIPLORETO       W 0PE0000000000000000000000000000604000       000000000000347232829622768030400AP009725010203040500000000000000000000000Q300058 604840000000002600000 000000048000000000522347000000000000
01PRO1INTBI7502224        PRO1MAYN8109000000153950   00010001310210001502121315469930713820212131546993153590021213154699694532310012912431303100129000000000000000000004963220000000960429530000000000001011000109102321000015750 0000000000000000000400000000001500000000000005571300000000005571300000000000000JR. MIGUEL GRAU 119      TIENDA TARAPOTO II    SAN MARTIN   W 0PE0000000000000000000000000000604000       000000000000347232829622768030400AP009645010203040500000000000000000000000Q300058 604604000000000000000 000000000000000000055713000000055713
01PRO1INTBI7601029        PRO1MAYN8109000000073356   00010001310210001502121315381077857630212131538107881011021213153811163694910012910150778100129000000000000000000001648220000000960429530000000000001011000109032321000137936 0000000000000000000400000000000500000000000004927700000000004927700000000000000JR.RAYMONDI 569 TDA. I   TIENDA PUCALLPA I     UCAYALI      W 0PE0000000000000000000000000000604000       000000000000347232829622768030400AP009615010203040500000000000000000000000Q300058 604604000000000000000 000000000000000000049277000000049277
01PRO1INTBI7601032        PRO1MAYN8109000000072606   0001000131021000150212131547212221082021213154721230302902121315472155575061001291246522110012900000000000000000000299522000000096042953000000000000301100109032321000132381  0000000000000000000400000000000000000000000065938300000000065938300000000000000JR.RAYMONDI 569 TDA. II  TIENDA PUCALLPA II    UCAYALI      W 0PE0000000000000000000000000000604000       000000000000347232829622768030400AP009646010203040500000000000000000000000Q300058 604604000000000000000 000000000000000000000000000000000000
01PRO1INTBI7601032        PRO1MAYN8109000000072606   00010001310210001502121315472612845370212131547261383869021213154726515740310012912474127100129000000000000000000002996220000000960429530000000000001011000109032321000132381 0000000000000000000400000000010000000000000055933300000000055933300000000000000JR.RAYMONDI 569 TDA. II  TIENDA PUCALLPA II    UCAYALI      W 0PE0000000000000000000000000000604000       000000000000347232829622768030400AP009647010203040500000000000000000000000Q300058 604604000000000000000 000000000000000000559333000000559333
01PRO1INTBMON00231        PRO1MAYN8109000000103518   00010001310210001502121315821967115280212131582196798644021213158220003006410012922295670100129000000000000000000000275220000000960429530000000000001011000000000000000000000 0000000000000000000400000000000200000000000000000000000000000000000000000000053AV. SUCRE 598            TD.023 SUCRE          LIMA         N  PE0000000000000000000000000000604000       000000000000347232829622768030400AP000000010203040500000000000000000000000Q300058 604604000000000000000 000000000000000000000000000000000000
01PRO1INTBMON07401        PRO1MAYN8109000000194723   00010001310210001502121315331346511710212131533134953328021213153313821843910012908521463100129000000000000000000005495220000000960429530000000000001011000109312321000002046 0000000000000000000400000000000200000000000000659900000000000659900000000000000JR.PROSPERO 330 MONEDERO TIENDA 740 IQUITOS    IQUITOS      N  PE0000000000000000000000000000604000       000000000000347232829622768030400AP009599010203040500000000000000000000000Q300058 604604000000000000000 000000000000000000006599000000006599
01PRO1INTBMON07401        PRO1MAYN8109000000003361   00010001310210001502121315826724318410212131582672501056021213158267626175810012922375242100129000000000000000000005632220000000960429530000000000001011000109012321000633798 0000000000000000000400000000000050000000000003042300000000003042300000000000000JR.PROSPERO 330 MONEDERO TIENDA 740 IQUITOS    IQUITOS      N  PE0000000000000000000000000000604000       000000000000347232829622768030400AP009729010203040500000000000000000000000Q300058 604604000000000000000 000000000000000000030423000000030423
01PRO1INTBMON07451        PRO1MAYN8109000000003437   00010001310210001502121315451070161210212131545107114523021213154511087552710012912114700100129000000000000000000006474220000000960429530000000000001011000000000000000000000 0000000000000000000400000000000300000000000000000000000000000000000000000000058JR. 9 DE DICIEMBRE 333   TIENDA BELEN IQUITOS  IQUITOS      N  PE0000000000000000000000000000604000       000000000000347232829622768030400AP000000010203040500000000000000000000000Q300058 604604000000000000000 000000000000000000000000000000000000
01PRO1INTBMON07451        PRO1MAYN8109000000003437   00010001310210001502121315451377116710212131545137892519021213154514113657210012912121770100129000000000000000000006475220000000960429530000000000001011000109012321000633321 0000000000000000000400000000000250000000000000050000000000000050000000000000000JR. 9 DE DICIEMBRE 333   TIENDA BELEN IQUITOS  IQUITOS      N  PE0000000000000000000000000000604000       000000000000347232829622768030400AP009641010203040500000000000000000000000Q300058 604604000000000000000 000000000000000000000500000000000500
01PRO1INTBMON07451        PRO1MAYN8109000000003437   00010001310210001502121315451784003910212131545178460225021213154518169756810012912125839100129000000000000000000006476220000000960429530000000000001011000000000000000000000 0000000000000000000400000000000050000000000000000000000000000000000000000000058JR. 9 DE DICIEMBRE 333   TIENDA BELEN IQUITOS  IQUITOS      N  PE0000000000000000000000000000604000       000000000000347232829622768030400AP000000010203040500000000000000000000000Q300058 604604000000000000000 000000000000000000000000000000000000
01PRO1INTBMON07451        PRO1MAYN8109000000175029   00010001310210001502121315546031201810212131554603208134021213155460647007310012914500311100129000000000000000000006482220000000960429530000000000001011000109092321000089494 0000000000000000000400000000000200000000000006799100000000006799100000000000000JR. 9 DE DICIEMBRE 333   TIENDA BELEN IQUITOS  IQUITOS      N  PE0000000000000000000000000000604000       000000000000347232829622768030400AP009657010203040500000000000000000000000Q300058 604604000000000000000 000000000000000000067991000000067991
01PRO1INTBMON07461        PRO1MAYN8109000000002702   00010001310210001502121315265322794960212131526532344109021213152653762330610012907021227100129000000000000000000004018220000000960429530000000000001011000109012321000633097 0000000000000000000400000000000150000000000000009300000000000009300000000000000JR.PROSPERO Y SGNTO LORESTDA.M.EXCHANGE IQUITOSIQUITOS      N  PE0000000000000000000000000000604000       000000000000347232829622768030400AP009590010203040500000000000000000000000Q300058 604604000000000000000 000000000000000000000093000000000093
01PRO1INTBMON07461        PRO1MAYN8109000000032386   00010001310210001502121315670046748560212131567004774857021213156700853984010012918164465100129000000000000000000004073220000000960429530000000000001011000109012321000634930 0000000000000000000400000000000100000000000003693900000000003693900000000000000JR.PROSPERO Y SGNTO LORESTDA.M.EXCHANGE IQUITOSIQUITOS      N  PE0000000000000000000000000000604000       000000000000347232829622768030400AP009691010203040500000000000000000000000Q300058 604604000000000000000 000000000000000000036939000000036939
